{
  "contractName": "ERC1400",
  "abi": [
    {
      "inputs": [
        {
          "internalType": "string",
          "name": "getName",
          "type": "string"
        },
        {
          "internalType": "string",
          "name": "getSymbol",
          "type": "string"
        },
        {
          "internalType": "address",
          "name": "initialController",
          "type": "address"
        }
      ],
      "stateMutability": "nonpayable",
      "type": "constructor"
    },
    {
      "anonymous": false,
      "inputs": [],
      "name": "AllowToken",
      "type": "event"
    },
    {
      "anonymous": false,
      "inputs": [
        {
          "indexed": true,
          "internalType": "address",
          "name": "owner",
          "type": "address"
        },
        {
          "indexed": true,
          "internalType": "address",
          "name": "spender",
          "type": "address"
        },
        {
          "indexed": false,
          "internalType": "uint256",
          "name": "oldAmount",
          "type": "uint256"
        },
        {
          "indexed": false,
          "internalType": "uint256",
          "name": "amount",
          "type": "uint256"
        }
      ],
      "name": "Approval",
      "type": "event"
    },
    {
      "anonymous": false,
      "inputs": [
        {
          "indexed": true,
          "internalType": "address",
          "name": "operator",
          "type": "address"
        },
        {
          "indexed": true,
          "internalType": "address",
          "name": "tokenHolder",
          "type": "address"
        }
      ],
      "name": "AuthorizedOperator",
      "type": "event"
    },
    {
      "anonymous": false,
      "inputs": [
        {
          "indexed": false,
          "internalType": "uint256",
          "name": "totalDividend",
          "type": "uint256"
        }
      ],
      "name": "DividendPayment",
      "type": "event"
    },
    {
      "anonymous": false,
      "inputs": [
        {
          "indexed": true,
          "internalType": "address",
          "name": "preOwner",
          "type": "address"
        },
        {
          "indexed": true,
          "internalType": "address",
          "name": "nextOwner",
          "type": "address"
        }
      ],
      "name": "OwnershipTransferred",
      "type": "event"
    },
    {
      "anonymous": false,
      "inputs": [],
      "name": "RestrictToken",
      "type": "event"
    },
    {
      "anonymous": false,
      "inputs": [
        {
          "indexed": true,
          "internalType": "address",
          "name": "operator",
          "type": "address"
        },
        {
          "indexed": true,
          "internalType": "address",
          "name": "tokenHolder",
          "type": "address"
        }
      ],
      "name": "RevokedOperator",
      "type": "event"
    },
    {
      "anonymous": false,
      "inputs": [
        {
          "indexed": true,
          "internalType": "address",
          "name": "from",
          "type": "address"
        },
        {
          "indexed": true,
          "internalType": "address",
          "name": "to",
          "type": "address"
        },
        {
          "indexed": false,
          "internalType": "uint256",
          "name": "amount",
          "type": "uint256"
        }
      ],
      "name": "Transfer",
      "type": "event"
    },
    {
      "anonymous": false,
      "inputs": [
        {
          "indexed": true,
          "internalType": "address",
          "name": "spender",
          "type": "address"
        },
        {
          "indexed": true,
          "internalType": "address",
          "name": "from",
          "type": "address"
        },
        {
          "indexed": true,
          "internalType": "address",
          "name": "to",
          "type": "address"
        },
        {
          "indexed": false,
          "internalType": "uint256",
          "name": "amount",
          "type": "uint256"
        }
      ],
      "name": "Transfer",
      "type": "event"
    },
    {
      "inputs": [
        {
          "internalType": "address",
          "name": "",
          "type": "address"
        },
        {
          "internalType": "address",
          "name": "",
          "type": "address"
        }
      ],
      "name": "_allowances",
      "outputs": [
        {
          "internalType": "uint256",
          "name": "",
          "type": "uint256"
        }
      ],
      "stateMutability": "view",
      "type": "function",
      "constant": true
    },
    {
      "inputs": [],
      "name": "_decimals",
      "outputs": [
        {
          "internalType": "uint8",
          "name": "",
          "type": "uint8"
        }
      ],
      "stateMutability": "view",
      "type": "function",
      "constant": true
    },
    {
      "inputs": [],
      "name": "_name",
      "outputs": [
        {
          "internalType": "string",
          "name": "",
          "type": "string"
        }
      ],
      "stateMutability": "view",
      "type": "function",
      "constant": true
    },
    {
      "inputs": [],
      "name": "_symbol",
      "outputs": [
        {
          "internalType": "string",
          "name": "",
          "type": "string"
        }
      ],
      "stateMutability": "view",
      "type": "function",
      "constant": true
    },
    {
      "inputs": [],
      "name": "_totalSupply",
      "outputs": [
        {
          "internalType": "uint256",
          "name": "",
          "type": "uint256"
        }
      ],
      "stateMutability": "view",
      "type": "function",
      "constant": true
    },
    {
      "inputs": [],
      "name": "owner",
      "outputs": [
        {
          "internalType": "address",
          "name": "",
          "type": "address"
        }
      ],
      "stateMutability": "view",
      "type": "function",
      "constant": true
    },
    {
      "inputs": [
        {
          "internalType": "address",
          "name": "newOwner",
          "type": "address"
        }
      ],
      "name": "transferOwnership",
      "outputs": [],
      "stateMutability": "nonpayable",
      "type": "function"
    },
    {
      "inputs": [],
      "name": "name",
      "outputs": [
        {
          "internalType": "string",
          "name": "",
          "type": "string"
        }
      ],
      "stateMutability": "view",
      "type": "function",
      "constant": true
    },
    {
      "inputs": [],
      "name": "symbol",
      "outputs": [
        {
          "internalType": "string",
          "name": "",
          "type": "string"
        }
      ],
      "stateMutability": "view",
      "type": "function",
      "constant": true
    },
    {
      "inputs": [],
      "name": "decimals",
      "outputs": [
        {
          "internalType": "uint8",
          "name": "",
          "type": "uint8"
        }
      ],
      "stateMutability": "view",
      "type": "function",
      "constant": true
    },
    {
      "inputs": [],
      "name": "totalSupply",
      "outputs": [
        {
          "internalType": "uint256",
          "name": "",
          "type": "uint256"
        }
      ],
      "stateMutability": "view",
      "type": "function",
      "constant": true
    },
    {
      "inputs": [
        {
          "internalType": "address",
          "name": "account",
          "type": "address"
        }
      ],
      "name": "balanceOf",
      "outputs": [
        {
          "internalType": "uint256",
          "name": "",
          "type": "uint256"
        }
      ],
      "stateMutability": "view",
      "type": "function",
      "constant": true
    },
    {
      "inputs": [
        {
          "internalType": "address",
          "name": "recipient",
          "type": "address"
        },
        {
          "internalType": "uint256",
          "name": "amount",
          "type": "uint256"
        }
      ],
      "name": "transfer",
      "outputs": [
        {
          "internalType": "bool",
          "name": "",
          "type": "bool"
        }
      ],
      "stateMutability": "nonpayable",
      "type": "function"
    },
    {
      "inputs": [
        {
          "internalType": "address",
          "name": "owner",
          "type": "address"
        },
        {
          "internalType": "address",
          "name": "spender",
          "type": "address"
        }
      ],
      "name": "allowance",
      "outputs": [
        {
          "internalType": "uint256",
          "name": "",
          "type": "uint256"
        }
      ],
      "stateMutability": "view",
      "type": "function",
      "constant": true
    },
    {
      "inputs": [
        {
          "internalType": "address",
          "name": "spender",
          "type": "address"
        },
        {
          "internalType": "uint256",
          "name": "amount",
          "type": "uint256"
        }
      ],
      "name": "approve",
      "outputs": [
        {
          "internalType": "bool",
          "name": "",
          "type": "bool"
        }
      ],
      "stateMutability": "nonpayable",
      "type": "function"
    },
    {
      "inputs": [
        {
          "internalType": "address",
          "name": "sender",
          "type": "address"
        },
        {
          "internalType": "address",
          "name": "recipient",
          "type": "address"
        },
        {
          "internalType": "uint256",
          "name": "amount",
          "type": "uint256"
        }
      ],
      "name": "transferFrom",
      "outputs": [
        {
          "internalType": "bool",
          "name": "",
          "type": "bool"
        }
      ],
      "stateMutability": "nonpayable",
      "type": "function"
    },
    {
      "inputs": [],
      "name": "isControllable",
      "outputs": [
        {
          "internalType": "bool",
          "name": "",
          "type": "bool"
        }
      ],
      "stateMutability": "view",
      "type": "function",
      "constant": true
    },
    {
      "inputs": [
        {
          "internalType": "address",
          "name": "operator",
          "type": "address"
        }
      ],
      "name": "authorizeOperator",
      "outputs": [],
      "stateMutability": "nonpayable",
      "type": "function"
    },
    {
      "inputs": [
        {
          "internalType": "address",
          "name": "operator",
          "type": "address"
        }
      ],
      "name": "revokeOperator",
      "outputs": [],
      "stateMutability": "nonpayable",
      "type": "function"
    },
    {
      "inputs": [
        {
          "internalType": "address",
          "name": "operator",
          "type": "address"
        },
        {
          "internalType": "address",
          "name": "tokenHolder",
          "type": "address"
        }
      ],
      "name": "isOperator",
      "outputs": [
        {
          "internalType": "bool",
          "name": "",
          "type": "bool"
        }
      ],
      "stateMutability": "view",
      "type": "function",
      "constant": true
    },
    {
      "inputs": [],
      "name": "controller",
      "outputs": [
        {
          "internalType": "address",
          "name": "",
          "type": "address"
        }
      ],
      "stateMutability": "view",
      "type": "function",
      "constant": true
    },
    {
      "inputs": [
        {
          "internalType": "address",
          "name": "operator",
          "type": "address"
        }
      ],
      "name": "setController",
      "outputs": [],
      "stateMutability": "nonpayable",
      "type": "function"
    },
    {
      "inputs": [],
      "name": "restrictToken",
      "outputs": [],
      "stateMutability": "nonpayable",
      "type": "function"
    },
    {
      "inputs": [],
      "name": "allowToken",
      "outputs": [],
      "stateMutability": "nonpayable",
      "type": "function"
    },
    {
      "inputs": [],
      "name": "isRestricted",
      "outputs": [
        {
          "internalType": "bool",
          "name": "",
          "type": "bool"
        }
      ],
      "stateMutability": "view",
      "type": "function",
      "constant": true
    },
    {
      "inputs": [
        {
          "internalType": "address",
          "name": "tokenholder",
          "type": "address"
        }
      ],
      "name": "isTokenHolder",
      "outputs": [
        {
          "internalType": "bool",
          "name": "",
          "type": "bool"
        }
      ],
      "stateMutability": "view",
      "type": "function",
      "constant": true
    },
    {
      "inputs": [],
      "name": "showAllTokenHolders",
      "outputs": [
        {
          "internalType": "address[]",
          "name": "",
          "type": "address[]"
        }
      ],
      "stateMutability": "view",
      "type": "function",
      "constant": true
    },
    {
      "inputs": [
        {
          "internalType": "uint256",
          "name": "totalDividend",
          "type": "uint256"
        }
      ],
      "name": "dividendPayment",
      "outputs": [],
      "stateMutability": "nonpayable",
      "type": "function"
    }
  ],
  "bytecode": "0x6080604052670de0b6b3a7640000600a553480156200001d57600080fd5b506040516200336c3803806200336c833981810160405281019062000043919062000509565b336000806101000a81548173ffffffffffffffffffffffffffffffffffffffff021916908373ffffffffffffffffffffffffffffffffffffffff1602179055508260079081620000949190620007ee565b508160089081620000a69190620007ee565b506012600960006101000a81548160ff021916908360ff160217905550600a546305f5e100620000d7919062000904565b600681905550600654600160003373ffffffffffffffffffffffffffffffffffffffff1673ffffffffffffffffffffffffffffffffffffffff168152602001908152602001600020819055506200013481620001fb60201b60201c565b600360008273ffffffffffffffffffffffffffffffffffffffff1673ffffffffffffffffffffffffffffffffffffffff16815260200190815260200160002060003373ffffffffffffffffffffffffffffffffffffffff1673ffffffffffffffffffffffffffffffffffffffff16815260200190815260200160002060009054906101000a9050506001600b60006101000a81548160ff0219169083151502179055506000600b60156101000a81548160ff0219169083151502179055505050506200094f565b600060046000600b60019054906101000a900473ffffffffffffffffffffffffffffffffffffffff1673ffffffffffffffffffffffffffffffffffffffff1673ffffffffffffffffffffffffffffffffffffffff16815260200190815260200160002060006101000a81548160ff0219169083151502179055506001600460008373ffffffffffffffffffffffffffffffffffffffff1673ffffffffffffffffffffffffffffffffffffffff16815260200190815260200160002060006101000a81548160ff02191690831515021790555080600b60016101000a81548173ffffffffffffffffffffffffffffffffffffffff021916908373ffffffffffffffffffffffffffffffffffffffff16021790555050565b6000604051905090565b600080fd5b600080fd5b600080fd5b600080fd5b6000601f19601f8301169050919050565b7f4e487b7100000000000000000000000000000000000000000000000000000000600052604160045260246000fd5b6200037a826200032f565b810181811067ffffffffffffffff821117156200039c576200039b62000340565b5b80604052505050565b6000620003b162000311565b9050620003bf82826200036f565b919050565b600067ffffffffffffffff821115620003e257620003e162000340565b5b620003ed826200032f565b9050602081019050919050565b60005b838110156200041a578082015181840152602081019050620003fd565b60008484015250505050565b60006200043d6200043784620003c4565b620003a5565b9050828152602081018484840111156200045c576200045b6200032a565b5b62000469848285620003fa565b509392505050565b600082601f83011262000489576200048862000325565b5b81516200049b84826020860162000426565b91505092915050565b600073ffffffffffffffffffffffffffffffffffffffff82169050919050565b6000620004d182620004a4565b9050919050565b620004e381620004c4565b8114620004ef57600080fd5b50565b6000815190506200050381620004d8565b92915050565b6000806000606084860312156200052557620005246200031b565b5b600084015167ffffffffffffffff81111562000546576200054562000320565b5b620005548682870162000471565b935050602084015167ffffffffffffffff81111562000578576200057762000320565b5b620005868682870162000471565b92505060406200059986828701620004f2565b9150509250925092565b600081519050919050565b7f4e487b7100000000000000000000000000000000000000000000000000000000600052602260045260246000fd5b60006002820490506001821680620005f657607f821691505b6020821081036200060c576200060b620005ae565b5b50919050565b60008190508160005260206000209050919050565b60006020601f8301049050919050565b600082821b905092915050565b600060088302620006767fffffffffffffffffffffffffffffffffffffffffffffffffffffffffffffffff8262000637565b62000682868362000637565b95508019841693508086168417925050509392505050565b6000819050919050565b6000819050919050565b6000620006cf620006c9620006c3846200069a565b620006a4565b6200069a565b9050919050565b6000819050919050565b620006eb83620006ae565b62000703620006fa82620006d6565b84845462000644565b825550505050565b600090565b6200071a6200070b565b62000727818484620006e0565b505050565b5b818110156200074f576200074360008262000710565b6001810190506200072d565b5050565b601f8211156200079e57620007688162000612565b620007738462000627565b8101602085101562000783578190505b6200079b620007928562000627565b8301826200072c565b50505b505050565b600082821c905092915050565b6000620007c360001984600802620007a3565b1980831691505092915050565b6000620007de8383620007b0565b9150826002028217905092915050565b620007f982620005a3565b67ffffffffffffffff81111562000815576200081462000340565b5b620008218254620005dd565b6200082e82828562000753565b600060209050601f83116001811462000866576000841562000851578287015190505b6200085d8582620007d0565b865550620008cd565b601f198416620008768662000612565b60005b82811015620008a05784890151825560018201915060208501945060208101905062000879565b86831015620008c05784890151620008bc601f891682620007b0565b8355505b6001600288020188555050505b505050505050565b7f4e487b7100000000000000000000000000000000000000000000000000000000600052601160045260246000fd5b600062000911826200069a565b91506200091e836200069a565b92508282026200092e816200069a565b91508282048414831517620009485762000947620008d5565b5b5092915050565b612a0d806200095f6000396000f3fe608060405234801561001057600080fd5b50600436106101c45760003560e01c80638da5cb5b116100f9578063b6363cf211610097578063dd62ed3e11610071578063dd62ed3e146104e9578063f2fde38b14610519578063f77c479114610535578063fad8b32a14610553576101c4565b8063b6363cf214610491578063c0ac360f146104c1578063d28d8852146104cb576101c4565b806395d89b41116100d357806395d89b411461041b578063a31d9c0a14610439578063a9059cbb14610443578063b09f126614610473576101c4565b80638da5cb5b146103c557806392eefe9b146103e3578063959b8c3f146103ff576101c4565b806323b872dd116101665780633eaaf86b116101405780633eaaf86b146103295780634c783bf51461034757806365731fe91461036557806370a0823114610395576101c4565b806323b872dd146102bd578063313ce567146102ed57806332424aa31461030b576101c4565b806317d355dd116101a257806317d355dd1461024757806318160ddd146102655780631f5e8f4c1461028357806320d2a4d6146102a1576101c4565b8063024c2ddd146101c957806306fdde03146101f9578063095ea7b314610217575b600080fd5b6101e360048036038101906101de9190611e34565b61056f565b6040516101f09190611e8d565b60405180910390f35b610201610594565b60405161020e9190611f38565b60405180910390f35b610231600480360381019061022c9190611f86565b610626565b60405161023e9190611fe1565b60405180910390f35b61024f610741565b60405161025c91906120ba565b60405180910390f35b61026d6107cf565b60405161027a9190611e8d565b60405180910390f35b61028b6107d9565b6040516102989190611fe1565b60405180910390f35b6102bb60048036038101906102b691906120dc565b6107f0565b005b6102d760048036038101906102d29190612109565b6109c0565b6040516102e49190611fe1565b60405180910390f35b6102f5610b30565b6040516103029190612178565b60405180910390f35b610313610b47565b6040516103209190612178565b60405180910390f35b610331610b5a565b60405161033e9190611e8d565b60405180910390f35b61034f610b60565b60405161035c9190611fe1565b60405180910390f35b61037f600480360381019061037a9190612193565b610b77565b60405161038c9190611fe1565b60405180910390f35b6103af60048036038101906103aa9190612193565b610bcd565b6040516103bc9190611e8d565b60405180910390f35b6103cd610c16565b6040516103da91906121cf565b60405180910390f35b6103fd60048036038101906103f89190612193565b610c3f565b005b61041960048036038101906104149190612193565b610cd9565b005b610423610e03565b6040516104309190611f38565b60405180910390f35b610441610e95565b005b61045d60048036038101906104589190611f86565b610f2f565b60405161046a9190611fe1565b60405180910390f35b61047b610fbd565b6040516104889190611f38565b60405180910390f35b6104ab60048036038101906104a69190611e34565b61104b565b6040516104b89190611fe1565b60405180910390f35b6104c961105f565b005b6104d36110f9565b6040516104e09190611f38565b60405180910390f35b61050360048036038101906104fe9190611e34565b611187565b6040516105109190611e8d565b60405180910390f35b610533600480360381019061052e9190612193565b61120e565b005b61053d6113ea565b60405161054a91906121cf565b60405180910390f35b61056d60048036038101906105689190612193565b611414565b005b6002602052816000526040600020602052806000526040600020600091509150505481565b6060600780546105a390612219565b80601f01602080910402602001604051908101604052809291908181526020018280546105cf90612219565b801561061c5780601f106105f15761010080835404028352916020019161061c565b820191906000526020600020905b8154815290600101906020018083116105ff57829003601f168201915b5050505050905090565b600080600260003373ffffffffffffffffffffffffffffffffffffffff1673ffffffffffffffffffffffffffffffffffffffff16815260200190815260200160002060008573ffffffffffffffffffffffffffffffffffffffff1673ffffffffffffffffffffffffffffffffffffffff16815260200190815260200160002054905082600160003373ffffffffffffffffffffffffffffffffffffffff1673ffffffffffffffffffffffffffffffffffffffff16815260200190815260200160002054101561072a576040517f08c379a0000000000000000000000000000000000000000000000000000000008152600401610721906122e2565b60405180910390fd5b6107363385838661153e565b600191505092915050565b6060600c8054806020026020016040519081016040528092919081815260200182805480156107c557602002820191906000526020600020905b8160009054906101000a900473ffffffffffffffffffffffffffffffffffffffff1673ffffffffffffffffffffffffffffffffffffffff168152602001906001019080831161077b575b5050505050905090565b6000600654905090565b6000600b60159054906101000a900460ff16905090565b60008054906101000a900473ffffffffffffffffffffffffffffffffffffffff1673ffffffffffffffffffffffffffffffffffffffff163373ffffffffffffffffffffffffffffffffffffffff161461087e576040517f08c379a00000000000000000000000000000000000000000000000000000000081526004016108759061234e565b60405180910390fd5b60005b600c8054905081101561098557600060065460016000600c85815481106108ab576108aa61236e565b5b9060005260206000200160009054906101000a900473ffffffffffffffffffffffffffffffffffffffff1673ffffffffffffffffffffffffffffffffffffffff1673ffffffffffffffffffffffffffffffffffffffff168152602001908152602001600020548461091c91906123cc565b610926919061243d565b905061097133600c84815481106109405761093f61236e565b5b9060005260206000200160009054906101000a900473ffffffffffffffffffffffffffffffffffffffff168361170a565b50808061097d9061246e565b915050610881565b507f23b3a9e74bec74a80a1b99fd645e2c39c1de9cbf9dd755dbb426f1449efeda91816040516109b59190611e8d565b60405180910390a150565b60006109cd84848461170a565b8273ffffffffffffffffffffffffffffffffffffffff168473ffffffffffffffffffffffffffffffffffffffff163373ffffffffffffffffffffffffffffffffffffffff167fd1398bee19313d6bf672ccb116e51f4a1a947e91c757907f51fbb5b5e56c698f85604051610a419190611e8d565b60405180910390a46000600260008673ffffffffffffffffffffffffffffffffffffffff1673ffffffffffffffffffffffffffffffffffffffff16815260200190815260200160002060003373ffffffffffffffffffffffffffffffffffffffff1673ffffffffffffffffffffffffffffffffffffffff16815260200190815260200160002054905082811015610b0d576040517f08c379a0000000000000000000000000000000000000000000000000000000008152600401610b0490612528565b60405180910390fd5b610b248533838685610b1f9190612548565b61153e565b60019150509392505050565b6000600960009054906101000a900460ff16905090565b600960009054906101000a900460ff1681565b60065481565b6000600b60009054906101000a900460ff16905090565b6000600560008373ffffffffffffffffffffffffffffffffffffffff1673ffffffffffffffffffffffffffffffffffffffff16815260200190815260200160002060009054906101000a900460ff169050919050565b6000600160008373ffffffffffffffffffffffffffffffffffffffff1673ffffffffffffffffffffffffffffffffffffffff168152602001908152602001600020549050919050565b60008060009054906101000a900473ffffffffffffffffffffffffffffffffffffffff16905090565b60008054906101000a900473ffffffffffffffffffffffffffffffffffffffff1673ffffffffffffffffffffffffffffffffffffffff163373ffffffffffffffffffffffffffffffffffffffff1614610ccd576040517f08c379a0000000000000000000000000000000000000000000000000000000008152600401610cc49061234e565b60405180910390fd5b610cd681611979565b50565b3373ffffffffffffffffffffffffffffffffffffffff168173ffffffffffffffffffffffffffffffffffffffff1603610d1157600080fd5b6001600360008373ffffffffffffffffffffffffffffffffffffffff1673ffffffffffffffffffffffffffffffffffffffff16815260200190815260200160002060003373ffffffffffffffffffffffffffffffffffffffff1673ffffffffffffffffffffffffffffffffffffffff16815260200190815260200160002060006101000a81548160ff0219169083151502179055503373ffffffffffffffffffffffffffffffffffffffff168173ffffffffffffffffffffffffffffffffffffffff167ff4caeb2d6ca8932a215a353d0703c326ec2d81fc68170f320eb2ab49e9df61f960405160405180910390a350565b606060088054610e1290612219565b80601f0160208091040260200160405190810160405280929190818152602001828054610e3e90612219565b8015610e8b5780601f10610e6057610100808354040283529160200191610e8b565b820191906000526020600020905b815481529060010190602001808311610e6e57829003601f168201915b5050505050905090565b600b60019054906101000a900473ffffffffffffffffffffffffffffffffffffffff1673ffffffffffffffffffffffffffffffffffffffff163373ffffffffffffffffffffffffffffffffffffffff1614610f25576040517f08c379a0000000000000000000000000000000000000000000000000000000008152600401610f1c906125ee565b60405180910390fd5b610f2d611a8f565b565b600080600a5483610f4091906123cc565b9050610f4d33858361170a565b8373ffffffffffffffffffffffffffffffffffffffff163373ffffffffffffffffffffffffffffffffffffffff167fddf252ad1be2c89b69c2b068fc378daa952ba7f163c4a11628f55a4df523b3ef83604051610faa9190611e8d565b60405180910390a3600191505092915050565b60088054610fca90612219565b80601f0160208091040260200160405190810160405280929190818152602001828054610ff690612219565b80156110435780601f1061101857610100808354040283529160200191611043565b820191906000526020600020905b81548152906001019060200180831161102657829003601f168201915b505050505081565b60006110578383611b0d565b905092915050565b600b60019054906101000a900473ffffffffffffffffffffffffffffffffffffffff1673ffffffffffffffffffffffffffffffffffffffff163373ffffffffffffffffffffffffffffffffffffffff16146110ef576040517f08c379a00000000000000000000000000000000000000000000000000000000081526004016110e6906125ee565b60405180910390fd5b6110f7611c43565b565b6007805461110690612219565b80601f016020809104026020016040519081016040528092919081815260200182805461113290612219565b801561117f5780601f106111545761010080835404028352916020019161117f565b820191906000526020600020905b81548152906001019060200180831161116257829003601f168201915b505050505081565b6000600260008473ffffffffffffffffffffffffffffffffffffffff1673ffffffffffffffffffffffffffffffffffffffff16815260200190815260200160002060008373ffffffffffffffffffffffffffffffffffffffff1673ffffffffffffffffffffffffffffffffffffffff16815260200190815260200160002054905092915050565b60008054906101000a900473ffffffffffffffffffffffffffffffffffffffff1673ffffffffffffffffffffffffffffffffffffffff163373ffffffffffffffffffffffffffffffffffffffff161461129c576040517f08c379a00000000000000000000000000000000000000000000000000000000081526004016112939061234e565b60405180910390fd5b60008054906101000a900473ffffffffffffffffffffffffffffffffffffffff1673ffffffffffffffffffffffffffffffffffffffff168173ffffffffffffffffffffffffffffffffffffffff16036112f457600080fd5b600073ffffffffffffffffffffffffffffffffffffffff168173ffffffffffffffffffffffffffffffffffffffff160361132d57600080fd5b806000806101000a81548173ffffffffffffffffffffffffffffffffffffffff021916908373ffffffffffffffffffffffffffffffffffffffff1602179055508073ffffffffffffffffffffffffffffffffffffffff1660008054906101000a900473ffffffffffffffffffffffffffffffffffffffff1673ffffffffffffffffffffffffffffffffffffffff167f8be0079c531659141344cd1fd0a4f28419497f9722a3daafe3b4186f6b6457e060405160405180910390a350565b6000600b60019054906101000a900473ffffffffffffffffffffffffffffffffffffffff16905090565b3373ffffffffffffffffffffffffffffffffffffffff168173ffffffffffffffffffffffffffffffffffffffff160361144c57600080fd5b6000600360008373ffffffffffffffffffffffffffffffffffffffff1673ffffffffffffffffffffffffffffffffffffffff16815260200190815260200160002060003373ffffffffffffffffffffffffffffffffffffffff1673ffffffffffffffffffffffffffffffffffffffff16815260200190815260200160002060006101000a81548160ff0219169083151502179055503373ffffffffffffffffffffffffffffffffffffffff168173ffffffffffffffffffffffffffffffffffffffff167f50546e66e5f44d728365dc3908c63bc5cfeeab470722c1677e3073a6ac294aa160405160405180910390a350565b600073ffffffffffffffffffffffffffffffffffffffff168473ffffffffffffffffffffffffffffffffffffffff16036115ad576040517f08c379a00000000000000000000000000000000000000000000000000000000081526004016115a490612680565b60405180910390fd5b600073ffffffffffffffffffffffffffffffffffffffff168373ffffffffffffffffffffffffffffffffffffffff160361161c576040517f08c379a000000000000000000000000000000000000000000000000000000000815260040161161390612712565b60405180910390fd5b80600260008673ffffffffffffffffffffffffffffffffffffffff1673ffffffffffffffffffffffffffffffffffffffff16815260200190815260200160002060008573ffffffffffffffffffffffffffffffffffffffff1673ffffffffffffffffffffffffffffffffffffffff168152602001908152602001600020819055508273ffffffffffffffffffffffffffffffffffffffff168473ffffffffffffffffffffffffffffffffffffffff167fb3fd5071835887567a0671151121894ddccc2842f1d10bedad13e0d17cace9a784846040516116fc929190612732565b60405180910390a350505050565b60001515600b60159054906101000a900460ff16151514611760576040517f08c379a0000000000000000000000000000000000000000000000000000000008152600401611757906127cd565b60405180910390fd5b600073ffffffffffffffffffffffffffffffffffffffff168373ffffffffffffffffffffffffffffffffffffffff16036117cf576040517f08c379a00000000000000000000000000000000000000000000000000000000081526004016117c69061285f565b60405180910390fd5b600073ffffffffffffffffffffffffffffffffffffffff168273ffffffffffffffffffffffffffffffffffffffff160361183e576040517f08c379a0000000000000000000000000000000000000000000000000000000008152600401611835906128f1565b60405180910390fd5b6000600160008573ffffffffffffffffffffffffffffffffffffffff1673ffffffffffffffffffffffffffffffffffffffff168152602001908152602001600020549050818110156118c5576040517f08c379a00000000000000000000000000000000000000000000000000000000081526004016118bc90612983565b60405180910390fd5b81816118d19190612548565b600160008673ffffffffffffffffffffffffffffffffffffffff1673ffffffffffffffffffffffffffffffffffffffff1681526020019081526020016000208190555081600160008573ffffffffffffffffffffffffffffffffffffffff1673ffffffffffffffffffffffffffffffffffffffff168152602001908152602001600020600082825461196391906129a3565b9250508190555061197383611cc1565b50505050565b600060046000600b60019054906101000a900473ffffffffffffffffffffffffffffffffffffffff1673ffffffffffffffffffffffffffffffffffffffff1673ffffffffffffffffffffffffffffffffffffffff16815260200190815260200160002060006101000a81548160ff0219169083151502179055506001600460008373ffffffffffffffffffffffffffffffffffffffff1673ffffffffffffffffffffffffffffffffffffffff16815260200190815260200160002060006101000a81548160ff02191690831515021790555080600b60016101000a81548173ffffffffffffffffffffffffffffffffffffffff021916908373ffffffffffffffffffffffffffffffffffffffff16021790555050565b611abb600b60019054906101000a900473ffffffffffffffffffffffffffffffffffffffff1633611b0d565b611ac457600080fd5b6001600b60156101000a81548160ff0219169083151502179055507fdd38609d23c0502d4f56b69caf286d0cc86705fd2a8027cb11b444bc797b200160405160405180910390a1565b60008173ffffffffffffffffffffffffffffffffffffffff168373ffffffffffffffffffffffffffffffffffffffff161480611bcf5750600360008473ffffffffffffffffffffffffffffffffffffffff1673ffffffffffffffffffffffffffffffffffffffff16815260200190815260200160002060008373ffffffffffffffffffffffffffffffffffffffff1673ffffffffffffffffffffffffffffffffffffffff16815260200190815260200160002060009054906101000a900460ff165b80611c3b5750600b60009054906101000a900460ff168015611c3a5750600460008473ffffffffffffffffffffffffffffffffffffffff1673ffffffffffffffffffffffffffffffffffffffff16815260200190815260200160002060009054906101000a900460ff165b5b905092915050565b611c6f600b60019054906101000a900473ffffffffffffffffffffffffffffffffffffffff1633611b0d565b611c7857600080fd5b6000600b60156101000a81548160ff0219169083151502179055507f1fdaf624b94fed9d74b0c625738858c2866a6767f81fc2d01171a340723bcbd460405160405180910390a1565b600560008273ffffffffffffffffffffffffffffffffffffffff1673ffffffffffffffffffffffffffffffffffffffff16815260200190815260200160002060009054906101000a900460ff16611dce57600c819080600181540180825580915050600190039060005260206000200160009091909190916101000a81548173ffffffffffffffffffffffffffffffffffffffff021916908373ffffffffffffffffffffffffffffffffffffffff1602179055506001600560008373ffffffffffffffffffffffffffffffffffffffff1673ffffffffffffffffffffffffffffffffffffffff16815260200190815260200160002060006101000a81548160ff0219169083151502179055505b50565b600080fd5b600073ffffffffffffffffffffffffffffffffffffffff82169050919050565b6000611e0182611dd6565b9050919050565b611e1181611df6565b8114611e1c57600080fd5b50565b600081359050611e2e81611e08565b92915050565b60008060408385031215611e4b57611e4a611dd1565b5b6000611e5985828601611e1f565b9250506020611e6a85828601611e1f565b9150509250929050565b6000819050919050565b611e8781611e74565b82525050565b6000602082019050611ea26000830184611e7e565b92915050565b600081519050919050565b600082825260208201905092915050565b60005b83811015611ee2578082015181840152602081019050611ec7565b60008484015250505050565b6000601f19601f8301169050919050565b6000611f0a82611ea8565b611f148185611eb3565b9350611f24818560208601611ec4565b611f2d81611eee565b840191505092915050565b60006020820190508181036000830152611f528184611eff565b905092915050565b611f6381611e74565b8114611f6e57600080fd5b50565b600081359050611f8081611f5a565b92915050565b60008060408385031215611f9d57611f9c611dd1565b5b6000611fab85828601611e1f565b9250506020611fbc85828601611f71565b9150509250929050565b60008115159050919050565b611fdb81611fc6565b82525050565b6000602082019050611ff66000830184611fd2565b92915050565b600081519050919050565b600082825260208201905092915050565b6000819050602082019050919050565b61203181611df6565b82525050565b60006120438383612028565b60208301905092915050565b6000602082019050919050565b600061206782611ffc565b6120718185612007565b935061207c83612018565b8060005b838110156120ad5781516120948882612037565b975061209f8361204f565b925050600181019050612080565b5085935050505092915050565b600060208201905081810360008301526120d4818461205c565b905092915050565b6000602082840312156120f2576120f1611dd1565b5b600061210084828501611f71565b91505092915050565b60008060006060848603121561212257612121611dd1565b5b600061213086828701611e1f565b935050602061214186828701611e1f565b925050604061215286828701611f71565b9150509250925092565b600060ff82169050919050565b6121728161215c565b82525050565b600060208201905061218d6000830184612169565b92915050565b6000602082840312156121a9576121a8611dd1565b5b60006121b784828501611e1f565b91505092915050565b6121c981611df6565b82525050565b60006020820190506121e460008301846121c0565b92915050565b7f4e487b7100000000000000000000000000000000000000000000000000000000600052602260045260246000fd5b6000600282049050600182168061223157607f821691505b602082108103612244576122436121ea565b5b50919050565b7f45524332303a2054686520616d6f756e7420746f206265207472616e7366657260008201527f72656420657863656564732074686520616d6f756e74206f6620746f6b656e7360208201527f2068656c6420627920746865206f776e65722e00000000000000000000000000604082015250565b60006122cc605383611eb3565b91506122d78261224a565b606082019050919050565b600060208201905081810360008301526122fb816122bf565b9050919050565b7f4f776e657248656c7065723a2063616c6c6572206973206e6f74206f776e6572600082015250565b6000612338602083611eb3565b915061234382612302565b602082019050919050565b600060208201905081810360008301526123678161232b565b9050919050565b7f4e487b7100000000000000000000000000000000000000000000000000000000600052603260045260246000fd5b7f4e487b7100000000000000000000000000000000000000000000000000000000600052601160045260246000fd5b60006123d782611e74565b91506123e283611e74565b92508282026123f081611e74565b915082820484148315176124075761240661239d565b5b5092915050565b7f4e487b7100000000000000000000000000000000000000000000000000000000600052601260045260246000fd5b600061244882611e74565b915061245383611e74565b9250826124635761246261240e565b5b828204905092915050565b600061247982611e74565b91507fffffffffffffffffffffffffffffffffffffffffffffffffffffffffffffffff82036124ab576124aa61239d565b5b600182019050919050565b7f45524332303a207472616e7366657220616d6f756e742065786365656473206160008201527f6c6c6f77616e6365000000000000000000000000000000000000000000000000602082015250565b6000612512602883611eb3565b915061251d826124b6565b604082019050919050565b6000602082019050818103600083015261254181612505565b9050919050565b600061255382611e74565b915061255e83611e74565b92508282039050818111156125765761257561239d565b5b92915050565b7f6f6e6c794f70657261746f723a2063616c6c6572206973206e6f74207468652060008201527f6f70657261746f72000000000000000000000000000000000000000000000000602082015250565b60006125d8602883611eb3565b91506125e38261257c565b604082019050919050565b60006020820190508181036000830152612607816125cb565b9050919050565b7f45524332303a20617070726f76652066726f6d20746865207a65726f2061646460008201527f7265737300000000000000000000000000000000000000000000000000000000602082015250565b600061266a602483611eb3565b91506126758261260e565b604082019050919050565b600060208201905081810360008301526126998161265d565b9050919050565b7f45524332303a20617070726f766520746f20746865207a65726f20616464726560008201527f7373000000000000000000000000000000000000000000000000000000000000602082015250565b60006126fc602283611eb3565b9150612707826126a0565b604082019050919050565b6000602082019050818103600083015261272b816126ef565b9050919050565b60006040820190506127476000830185611e7e565b6127546020830184611e7e565b9392505050565b7f5265737472696374696f6e3a2074686520746f6b656e2069732072657374726960008201527f6374656420627920746865206f70657261746f72000000000000000000000000602082015250565b60006127b7603483611eb3565b91506127c28261275b565b604082019050919050565b600060208201905081810360008301526127e6816127aa565b9050919050565b7f45524332303a207472616e736665722066726f6d20746865207a65726f20616460008201527f6472657373000000000000000000000000000000000000000000000000000000602082015250565b6000612849602583611eb3565b9150612854826127ed565b604082019050919050565b600060208201905081810360008301526128788161283c565b9050919050565b7f45524332303a207472616e7366657220746f20746865207a65726f206164647260008201527f6573730000000000000000000000000000000000000000000000000000000000602082015250565b60006128db602383611eb3565b91506128e68261287f565b604082019050919050565b6000602082019050818103600083015261290a816128ce565b9050919050565b7f45524332303a207472616e7366657220616d6f756e742065786365656473206260008201527f616c616e63650000000000000000000000000000000000000000000000000000602082015250565b600061296d602683611eb3565b915061297882612911565b604082019050919050565b6000602082019050818103600083015261299c81612960565b9050919050565b60006129ae82611e74565b91506129b983611e74565b92508282019050808211156129d1576129d061239d565b5b9291505056fea26469706673582212202ee359e91e58660bfdcc535a619f87159f6ceaf5658a652d1dd2d4f725a3785264736f6c63430008110033",
  "immutableReferences": {},
  "source": "// SPDX-License-Identifier: GPL-3.0\npragma solidity >=0.7.0 <0.9.0;\n\ninterface ERC1400Interface {\n    function totalSupply() external view returns (uint256);\n    function balanceOf(address account) external view returns (uint256);\n    function transfer(address recipient, uint256 amount) external returns (bool);\n    function approve(address spender, uint256 amount) external returns (bool);\n    function allowance(address owner, address spender) external view returns (uint256);\n    function transferFrom(address spender, address recipient, uint256 amount) external returns (bool);\n    function isControllable() external view returns (bool);\n    function authorizeOperator(address operator) external;\n    function revokeOperator(address operator) external;\n    function isOperator(address operator, address tokenHolder) external view returns (bool);\n    function restrictToken() external;\n    function allowToken() external;\n    function isRestricted() external view returns(bool);\n    function isTokenHolder(address tokenholder) external view returns (bool);\n    function dividendPayment(uint256 totalDividend) external ;\n\n    event Transfer(address indexed from, address indexed to, uint256 amount);\n    event Transfer(address indexed spender, address indexed from, address indexed to, uint256 amount);\n    event Approval(address indexed owner, address indexed spender, uint256 oldAmount, uint256 amount);\n    event AuthorizedOperator(address indexed operator, address indexed tokenHolder);\n    event RevokedOperator(address indexed operator, address indexed tokenHolder);\n    event RestrictToken();\n    event AllowToken();\n    event DividendPayment(uint256 totalDividend);\n}\n\nabstract contract OwnerHelper {\n  \taddress private _owner;\n\n  \tevent OwnershipTransferred(address indexed preOwner, address indexed nextOwner);\n\n  \tmodifier onlyOwner {\n\t\trequire(msg.sender == _owner, \"OwnerHelper: caller is not owner\");\n\t\t_;\n  \t}\n\n  \tconstructor() {\n\t\t_owner = msg.sender;\n  \t}\n\n  \tfunction owner() public view virtual returns (address) {\n\t\treturn _owner;\n  \t}\n\n  \tfunction transferOwnership(address newOwner) onlyOwner public {\n\t\trequire(newOwner != _owner);\n\t\trequire(newOwner != address(0x0));\n\t\t_owner = newOwner;\n\t\temit OwnershipTransferred(_owner, newOwner);\n  \t}\n}\n\ncontract ERC1400 is ERC1400Interface, OwnerHelper {\n    mapping (address => uint256) private _balances;\n    mapping (address => mapping (address => uint256)) public _allowances;\n    mapping(address => mapping(address => bool)) internal _authorizedOperator; //\n    mapping(address => bool) internal _isController; //\n    mapping(address => bool) internal _isTokenHolder; //        \n\n    uint256 public _totalSupply;\n    string public _name;\n    string public _symbol;\n    uint8 public _decimals;\n    uint private E18 = 1000000000000000000;\n    bool internal _isControllable; // operator      \n    address internal _controller; //     operator()\n    bool internal _isRestricted; //    \n    address[] internal _tokenHolderList; //     \n    \n\n    /*\n    * operator()     modifier\n    */\n    modifier onlyOperator {\n        require(msg.sender == _controller, \"onlyOperator: caller is not the operator\");\n        _;\n    }\n\n    /*\n    *     modifier\n    */\n    modifier notRestricted {\n        require(_isRestricted == false, \"Restriction: the token is restricted by the operator\");\n        _;\n    }\n\n    constructor(string memory getName, string memory getSymbol, address initialController) {\n        _name = getName;\n        _symbol = getSymbol;\n        _decimals = 18; //    \n        _totalSupply = 100000000 * E18; //     \n        _balances[msg.sender] = _totalSupply; // constructor    ??\n\n        _setController(initialController); //   controller  \n        _authorizedOperator[initialController][msg.sender]; //    operator  \n        _isControllable = true; // operator/controller       \n        _isRestricted = false; //     \n\n    }\n\n    function name() public view returns (string memory) {\n        return _name;\n    }\n\n    function symbol() public view returns (string memory) {\n        return _symbol;\n    }\n\n    function decimals() public view returns (uint8) {\n        return _decimals;\n    }\n\n    function totalSupply() external view virtual override returns (uint256) {\n        return _totalSupply;\n    }\n\n    function balanceOf(address account) external view virtual override returns (uint256) {\n        return _balances[account];\n    }\n\n    function transfer(address recipient, uint amount) public virtual override returns (bool) {\n        uint e18_amount = amount * E18;\n        _transfer(msg.sender, recipient, e18_amount);\n        emit Transfer(msg.sender, recipient, e18_amount);\n        return true;\n    }\n\n    function allowance(address owner, address spender) external view override returns (uint256) {\n        return _allowances[owner][spender];\n    }\n\n    function approve(address spender, uint amount) external virtual override returns (bool) {\n        uint256 currentAllowance = _allowances[msg.sender][spender];\n        require(_balances[msg.sender] >= amount,\"ERC20: The amount to be transferred exceeds the amount of tokens held by the owner.\");\n        _approve(msg.sender, spender, currentAllowance, amount);\n        return true;\n    }\n\n    function transferFrom(address sender, address recipient, uint256 amount) external virtual override returns (bool) {\n        _transfer(sender, recipient, amount);\n        emit Transfer(msg.sender, sender, recipient, amount);\n        uint256 currentAllowance = _allowances[sender][msg.sender];\n        require(currentAllowance >= amount, \"ERC20: transfer amount exceeds allowance\");\n        _approve(sender, msg.sender, currentAllowance, currentAllowance - amount);\n        return true;\n    }\n\n    function _transfer(address sender, address recipient, uint256 amount) internal virtual notRestricted {\n        require(sender != address(0), \"ERC20: transfer from the zero address\");\n        require(recipient != address(0), \"ERC20: transfer to the zero address\");\n        uint256 senderBalance = _balances[sender];\n        require(senderBalance >= amount, \"ERC20: transfer amount exceeds balance\");\n        _balances[sender] = senderBalance - amount;\n        _balances[recipient] += amount;\n        _addToTokenholderList(recipient); //       .\n    }\n\n    function _approve(address owner, address spender, uint256 currentAmount, uint256 amount) internal virtual {\n        require(owner != address(0), \"ERC20: approve from the zero address\");\n        require(spender != address(0), \"ERC20: approve to the zero address\");\n        _allowances[owner][spender] = amount;\n        emit Approval(owner, spender, currentAmount, amount);\n    }\n\n    /**\n    * @dev Know if the token can be controlled by operators.\n    * If a token returns 'false' for 'isControllable()'' then it MUST always return 'false' in the future.\n    * @return bool 'true' if the token can still be controlled by operators, 'false' if it can't anymore.\n    */\n    function isControllable() external override view returns (bool) {\n        return _isControllable;\n    }\n\n    /**\n    * @dev Set a third party operator address as an operator of 'msg.sender' to transfer\n    * and redeem tokens on its behalf.\n    * @param operator Address to set as an operator for 'msg.sender'.\n    */\n    function authorizeOperator(address operator) external override {\n        require(operator != msg.sender);\n        _authorizedOperator[operator][msg.sender] = true;\n        emit AuthorizedOperator(operator, msg.sender);\n    }\n\n    /**\n    * @dev Remove the right of the operator address to be an operator for 'msg.sender'\n    * and to transfer and redeem tokens on its behalf.\n    * @param operator Address to rescind as an operator for 'msg.sender'.\n    */\n    function revokeOperator(address operator) external override {\n        require(operator != msg.sender);\n        _authorizedOperator[operator][msg.sender] = false;\n        emit RevokedOperator(operator, msg.sender);\n    }\n\n    /**\n    * @dev Indicate whether the operator address is an operator of the tokenHolder address.\n    * @param operator Address which may be an operator of tokenHolder.\n    * @param tokenHolder Address of a token holder which may have the operator address as an operator.\n    * @return 'true' if operator is an operator of 'tokenHolder' and 'false' otherwise.\n    */\n    function isOperator(address operator, address tokenHolder) external override view returns (bool) {\n        return _isOperator(operator, tokenHolder);\n    }\n\n    /**\n    * @dev Get the list of controllers as defined by the token contract.\n    * @return List of addresses of all the controllers.\n    */\n    function controller() external view returns (address) {\n        return _controller;\n    }\n\n    /*\n    * @dev Set list of token controllers.\n    * @param operators Controller addresses.\n    */\n    function setController(address operator) external onlyOwner {\n        _setController(operator);\n    }\n\n    /*\n    * @dev Indicate whether the operator address is an operator of the tokenHolder address.\n    * @param operator Address which may be an operator of 'tokenHolder'.\n    * @param tokenHolder Address of a token holder which may have the 'operator' address as an operator.\n    * @return 'true' if 'operator' is an operator of 'tokenHolder' and 'false' otherwise.\n    */\n    function _isOperator(address operator, address tokenHolder) internal view returns (bool) {\n        return (operator == tokenHolder\n          || _authorizedOperator[operator][tokenHolder]\n          || (_isControllable && _isController[operator])\n        );\n    }\n\n    /*\n    * @dev Set list of token controllers.\n    * @param operators Controller addresses.\n    */\n    function _setController(address operator) internal {\n        _isController[_controller] = false;\n        _isController[operator] = true;\n        _controller = operator;\n    }\n\n    /*\n    *     \n    */\n\n    //     : operator       .\n    function restrictToken() external override onlyOperator {\n        _restrictToken();\n    }\n\n    //     : operator       .\n    function allowToken() external override onlyOperator {\n        _allowToken();\n    }\n\n    function _restrictToken() internal {\n        require(_isOperator(_controller, msg.sender));\n        _isRestricted = true;\n        emit RestrictToken();\n    }\n\n    function _allowToken() internal {\n        require(_isOperator(_controller, msg.sender));\n        _isRestricted = false;\n        emit AllowToken();\n    }\n\n    //    \n    function isRestricted() external view override returns(bool) {\n        return _isRestricted;\n    }\n\n    /*\n    *    \n    */\n\n    //    \n    function _addToTokenholderList(address recipient) internal {\n        if(!_isTokenHolder[recipient]){\n            _tokenHolderList.push(recipient);\n            _isTokenHolder[recipient] = true;\n        }\n    }\n\n    //   \n    function isTokenHolder(address tokenholder) external view override returns (bool) {\n        return _isTokenHolder[tokenholder];\n    }\n\n    //     \n    function showAllTokenHolders() external view returns (address[] memory) {\n        return _tokenHolderList;\n    }\n\n    //    :          \n    function dividendPayment(uint256 totalDividend) external override onlyOwner {\n        for(uint256 i=0; i < _tokenHolderList.length; i++){\n            uint256 dividend = totalDividend * _balances[_tokenHolderList[i]] / _totalSupply;\n            _transfer(msg.sender, _tokenHolderList[i], dividend);\n        }\n        emit DividendPayment(totalDividend);\n    }\n}",
  "sourcePath": "/Users/hyuntae/Desktop/BEB-07-final-entasis/contract/contracts/ERC1400.sol",
  "compiler": {
    "name": "solc",
    "version": "0.8.17+commit.8df45f5f.Emscripten.clang"
  },
  "schemaVersion": "3.4.11",
  "updatedAt": "2023-02-02T05:31:23.655Z",
  "networkType": "ethereum",
  "devdoc": {
    "kind": "dev",
    "methods": {
      "authorizeOperator(address)": {
        "details": "Set a third party operator address as an operator of 'msg.sender' to transfer and redeem tokens on its behalf.",
        "params": {
          "operator": "Address to set as an operator for 'msg.sender'."
        }
      },
      "controller()": {
        "details": "Get the list of controllers as defined by the token contract.",
        "returns": {
          "_0": "List of addresses of all the controllers."
        }
      },
      "isControllable()": {
        "details": "Know if the token can be controlled by operators. If a token returns 'false' for 'isControllable()'' then it MUST always return 'false' in the future.",
        "returns": {
          "_0": "bool 'true' if the token can still be controlled by operators, 'false' if it can't anymore."
        }
      },
      "isOperator(address,address)": {
        "details": "Indicate whether the operator address is an operator of the tokenHolder address.",
        "params": {
          "operator": "Address which may be an operator of tokenHolder.",
          "tokenHolder": "Address of a token holder which may have the operator address as an operator."
        },
        "returns": {
          "_0": "'true' if operator is an operator of 'tokenHolder' and 'false' otherwise."
        }
      },
      "revokeOperator(address)": {
        "details": "Remove the right of the operator address to be an operator for 'msg.sender' and to transfer and redeem tokens on its behalf.",
        "params": {
          "operator": "Address to rescind as an operator for 'msg.sender'."
        }
      }
    },
    "version": 1
  },
  "userdoc": {
    "kind": "user",
    "methods": {},
    "version": 1
  }
}