{
  "contractName": "ERC1400",
  "abi": [
    {
      "inputs": [
        {
          "internalType": "string",
          "name": "getName",
          "type": "string"
        },
        {
          "internalType": "string",
          "name": "getSymbol",
          "type": "string"
        },
        {
          "internalType": "address",
          "name": "initialController",
          "type": "address"
        }
      ],
      "stateMutability": "nonpayable",
      "type": "constructor"
    },
    {
      "anonymous": false,
      "inputs": [],
      "name": "AllowToken",
      "type": "event"
    },
    {
      "anonymous": false,
      "inputs": [
        {
          "indexed": true,
          "internalType": "address",
          "name": "owner",
          "type": "address"
        },
        {
          "indexed": true,
          "internalType": "address",
          "name": "spender",
          "type": "address"
        },
        {
          "indexed": false,
          "internalType": "uint256",
          "name": "oldAmount",
          "type": "uint256"
        },
        {
          "indexed": false,
          "internalType": "uint256",
          "name": "amount",
          "type": "uint256"
        }
      ],
      "name": "Approval",
      "type": "event"
    },
    {
      "anonymous": false,
      "inputs": [
        {
          "indexed": true,
          "internalType": "address",
          "name": "operator",
          "type": "address"
        },
        {
          "indexed": true,
          "internalType": "address",
          "name": "tokenHolder",
          "type": "address"
        }
      ],
      "name": "AuthorizedOperator",
      "type": "event"
    },
    {
      "anonymous": false,
      "inputs": [
        {
          "indexed": false,
          "internalType": "uint256",
          "name": "totalDividend",
          "type": "uint256"
        }
      ],
      "name": "DividendPayment",
      "type": "event"
    },
    {
      "anonymous": false,
      "inputs": [
        {
          "indexed": true,
          "internalType": "address",
          "name": "preOwner",
          "type": "address"
        },
        {
          "indexed": true,
          "internalType": "address",
          "name": "nextOwner",
          "type": "address"
        }
      ],
      "name": "OwnershipTransferred",
      "type": "event"
    },
    {
      "anonymous": false,
      "inputs": [],
      "name": "RestrictToken",
      "type": "event"
    },
    {
      "anonymous": false,
      "inputs": [
        {
          "indexed": true,
          "internalType": "address",
          "name": "operator",
          "type": "address"
        },
        {
          "indexed": true,
          "internalType": "address",
          "name": "tokenHolder",
          "type": "address"
        }
      ],
      "name": "RevokedOperator",
      "type": "event"
    },
    {
      "anonymous": false,
      "inputs": [
        {
          "indexed": true,
          "internalType": "address",
          "name": "from",
          "type": "address"
        },
        {
          "indexed": true,
          "internalType": "address",
          "name": "to",
          "type": "address"
        },
        {
          "indexed": false,
          "internalType": "uint256",
          "name": "amount",
          "type": "uint256"
        }
      ],
      "name": "Transfer",
      "type": "event"
    },
    {
      "anonymous": false,
      "inputs": [
        {
          "indexed": true,
          "internalType": "address",
          "name": "spender",
          "type": "address"
        },
        {
          "indexed": true,
          "internalType": "address",
          "name": "from",
          "type": "address"
        },
        {
          "indexed": true,
          "internalType": "address",
          "name": "to",
          "type": "address"
        },
        {
          "indexed": false,
          "internalType": "uint256",
          "name": "amount",
          "type": "uint256"
        }
      ],
      "name": "Transfer",
      "type": "event"
    },
    {
      "inputs": [
        {
          "internalType": "address",
          "name": "",
          "type": "address"
        },
        {
          "internalType": "address",
          "name": "",
          "type": "address"
        }
      ],
      "name": "_allowances",
      "outputs": [
        {
          "internalType": "uint256",
          "name": "",
          "type": "uint256"
        }
      ],
      "stateMutability": "view",
      "type": "function",
      "constant": true
    },
    {
      "inputs": [],
      "name": "_decimals",
      "outputs": [
        {
          "internalType": "uint8",
          "name": "",
          "type": "uint8"
        }
      ],
      "stateMutability": "view",
      "type": "function",
      "constant": true
    },
    {
      "inputs": [],
      "name": "_name",
      "outputs": [
        {
          "internalType": "string",
          "name": "",
          "type": "string"
        }
      ],
      "stateMutability": "view",
      "type": "function",
      "constant": true
    },
    {
      "inputs": [],
      "name": "_symbol",
      "outputs": [
        {
          "internalType": "string",
          "name": "",
          "type": "string"
        }
      ],
      "stateMutability": "view",
      "type": "function",
      "constant": true
    },
    {
      "inputs": [],
      "name": "_totalSupply",
      "outputs": [
        {
          "internalType": "uint256",
          "name": "",
          "type": "uint256"
        }
      ],
      "stateMutability": "view",
      "type": "function",
      "constant": true
    },
    {
      "inputs": [],
      "name": "owner",
      "outputs": [
        {
          "internalType": "address",
          "name": "",
          "type": "address"
        }
      ],
      "stateMutability": "view",
      "type": "function",
      "constant": true
    },
    {
      "inputs": [
        {
          "internalType": "address",
          "name": "newOwner",
          "type": "address"
        }
      ],
      "name": "transferOwnership",
      "outputs": [],
      "stateMutability": "nonpayable",
      "type": "function"
    },
    {
      "inputs": [],
      "name": "name",
      "outputs": [
        {
          "internalType": "string",
          "name": "",
          "type": "string"
        }
      ],
      "stateMutability": "view",
      "type": "function",
      "constant": true
    },
    {
      "inputs": [],
      "name": "symbol",
      "outputs": [
        {
          "internalType": "string",
          "name": "",
          "type": "string"
        }
      ],
      "stateMutability": "view",
      "type": "function",
      "constant": true
    },
    {
      "inputs": [],
      "name": "decimals",
      "outputs": [
        {
          "internalType": "uint8",
          "name": "",
          "type": "uint8"
        }
      ],
      "stateMutability": "view",
      "type": "function",
      "constant": true
    },
    {
      "inputs": [],
      "name": "totalSupply",
      "outputs": [
        {
          "internalType": "uint256",
          "name": "",
          "type": "uint256"
        }
      ],
      "stateMutability": "view",
      "type": "function",
      "constant": true
    },
    {
      "inputs": [],
      "name": "simpleTotalSupply",
      "outputs": [
        {
          "internalType": "uint256",
          "name": "",
          "type": "uint256"
        }
      ],
      "stateMutability": "view",
      "type": "function",
      "constant": true
    },
    {
      "inputs": [
        {
          "internalType": "address",
          "name": "account",
          "type": "address"
        }
      ],
      "name": "balanceOf",
      "outputs": [
        {
          "internalType": "uint256",
          "name": "",
          "type": "uint256"
        }
      ],
      "stateMutability": "view",
      "type": "function",
      "constant": true
    },
    {
      "inputs": [
        {
          "internalType": "address",
          "name": "account",
          "type": "address"
        }
      ],
      "name": "simpleBalanceOf",
      "outputs": [
        {
          "internalType": "uint256",
          "name": "",
          "type": "uint256"
        }
      ],
      "stateMutability": "view",
      "type": "function",
      "constant": true
    },
    {
      "inputs": [
        {
          "internalType": "address",
          "name": "recipient",
          "type": "address"
        },
        {
          "internalType": "uint256",
          "name": "amount",
          "type": "uint256"
        }
      ],
      "name": "transfer",
      "outputs": [
        {
          "internalType": "bool",
          "name": "",
          "type": "bool"
        }
      ],
      "stateMutability": "nonpayable",
      "type": "function"
    },
    {
      "inputs": [
        {
          "internalType": "address",
          "name": "owner",
          "type": "address"
        },
        {
          "internalType": "address",
          "name": "spender",
          "type": "address"
        }
      ],
      "name": "allowance",
      "outputs": [
        {
          "internalType": "uint256",
          "name": "",
          "type": "uint256"
        }
      ],
      "stateMutability": "view",
      "type": "function",
      "constant": true
    },
    {
      "inputs": [
        {
          "internalType": "address",
          "name": "spender",
          "type": "address"
        },
        {
          "internalType": "uint256",
          "name": "amount",
          "type": "uint256"
        }
      ],
      "name": "approve",
      "outputs": [
        {
          "internalType": "bool",
          "name": "",
          "type": "bool"
        }
      ],
      "stateMutability": "nonpayable",
      "type": "function"
    },
    {
      "inputs": [
        {
          "internalType": "address",
          "name": "sender",
          "type": "address"
        },
        {
          "internalType": "address",
          "name": "recipient",
          "type": "address"
        },
        {
          "internalType": "uint256",
          "name": "amount",
          "type": "uint256"
        }
      ],
      "name": "transferFrom",
      "outputs": [
        {
          "internalType": "bool",
          "name": "",
          "type": "bool"
        }
      ],
      "stateMutability": "nonpayable",
      "type": "function"
    },
    {
      "inputs": [],
      "name": "isControllable",
      "outputs": [
        {
          "internalType": "bool",
          "name": "",
          "type": "bool"
        }
      ],
      "stateMutability": "view",
      "type": "function",
      "constant": true
    },
    {
      "inputs": [
        {
          "internalType": "address",
          "name": "operator",
          "type": "address"
        }
      ],
      "name": "authorizeOperator",
      "outputs": [],
      "stateMutability": "nonpayable",
      "type": "function"
    },
    {
      "inputs": [
        {
          "internalType": "address",
          "name": "operator",
          "type": "address"
        }
      ],
      "name": "revokeOperator",
      "outputs": [],
      "stateMutability": "nonpayable",
      "type": "function"
    },
    {
      "inputs": [
        {
          "internalType": "address",
          "name": "operator",
          "type": "address"
        },
        {
          "internalType": "address",
          "name": "tokenHolder",
          "type": "address"
        }
      ],
      "name": "isOperator",
      "outputs": [
        {
          "internalType": "bool",
          "name": "",
          "type": "bool"
        }
      ],
      "stateMutability": "view",
      "type": "function",
      "constant": true
    },
    {
      "inputs": [],
      "name": "controller",
      "outputs": [
        {
          "internalType": "address",
          "name": "",
          "type": "address"
        }
      ],
      "stateMutability": "view",
      "type": "function",
      "constant": true
    },
    {
      "inputs": [
        {
          "internalType": "address",
          "name": "operator",
          "type": "address"
        }
      ],
      "name": "setController",
      "outputs": [],
      "stateMutability": "nonpayable",
      "type": "function"
    },
    {
      "inputs": [],
      "name": "restrictToken",
      "outputs": [],
      "stateMutability": "nonpayable",
      "type": "function"
    },
    {
      "inputs": [],
      "name": "allowToken",
      "outputs": [],
      "stateMutability": "nonpayable",
      "type": "function"
    },
    {
      "inputs": [],
      "name": "isRestricted",
      "outputs": [
        {
          "internalType": "bool",
          "name": "",
          "type": "bool"
        }
      ],
      "stateMutability": "view",
      "type": "function",
      "constant": true
    },
    {
      "inputs": [
        {
          "internalType": "address",
          "name": "tokenholder",
          "type": "address"
        }
      ],
      "name": "isTokenHolder",
      "outputs": [
        {
          "internalType": "bool",
          "name": "",
          "type": "bool"
        }
      ],
      "stateMutability": "view",
      "type": "function",
      "constant": true
    },
    {
      "inputs": [],
      "name": "showAllTokenHolders",
      "outputs": [
        {
          "internalType": "address[]",
          "name": "",
          "type": "address[]"
        }
      ],
      "stateMutability": "view",
      "type": "function",
      "constant": true
    },
    {
      "inputs": [
        {
          "internalType": "uint256",
          "name": "totalDividend",
          "type": "uint256"
        }
      ],
      "name": "dividendPayment",
      "outputs": [],
      "stateMutability": "nonpayable",
      "type": "function"
    }
  ],
  "bytecode": "0x6080604052670de0b6b3a7640000600a553480156200001d57600080fd5b506040516200343538038062003435833981810160405281019062000043919062000509565b336000806101000a81548173ffffffffffffffffffffffffffffffffffffffff021916908373ffffffffffffffffffffffffffffffffffffffff1602179055508260079081620000949190620007ee565b508160089081620000a69190620007ee565b506012600960006101000a81548160ff021916908360ff160217905550600a546305f5e100620000d7919062000904565b600681905550600654600160003373ffffffffffffffffffffffffffffffffffffffff1673ffffffffffffffffffffffffffffffffffffffff168152602001908152602001600020819055506200013481620001fb60201b60201c565b600360008273ffffffffffffffffffffffffffffffffffffffff1673ffffffffffffffffffffffffffffffffffffffff16815260200190815260200160002060003373ffffffffffffffffffffffffffffffffffffffff1673ffffffffffffffffffffffffffffffffffffffff16815260200190815260200160002060009054906101000a9050506001600b60006101000a81548160ff0219169083151502179055506000600b60156101000a81548160ff0219169083151502179055505050506200094f565b600060046000600b60019054906101000a900473ffffffffffffffffffffffffffffffffffffffff1673ffffffffffffffffffffffffffffffffffffffff1673ffffffffffffffffffffffffffffffffffffffff16815260200190815260200160002060006101000a81548160ff0219169083151502179055506001600460008373ffffffffffffffffffffffffffffffffffffffff1673ffffffffffffffffffffffffffffffffffffffff16815260200190815260200160002060006101000a81548160ff02191690831515021790555080600b60016101000a81548173ffffffffffffffffffffffffffffffffffffffff021916908373ffffffffffffffffffffffffffffffffffffffff16021790555050565b6000604051905090565b600080fd5b600080fd5b600080fd5b600080fd5b6000601f19601f8301169050919050565b7f4e487b7100000000000000000000000000000000000000000000000000000000600052604160045260246000fd5b6200037a826200032f565b810181811067ffffffffffffffff821117156200039c576200039b62000340565b5b80604052505050565b6000620003b162000311565b9050620003bf82826200036f565b919050565b600067ffffffffffffffff821115620003e257620003e162000340565b5b620003ed826200032f565b9050602081019050919050565b60005b838110156200041a578082015181840152602081019050620003fd565b60008484015250505050565b60006200043d6200043784620003c4565b620003a5565b9050828152602081018484840111156200045c576200045b6200032a565b5b62000469848285620003fa565b509392505050565b600082601f83011262000489576200048862000325565b5b81516200049b84826020860162000426565b91505092915050565b600073ffffffffffffffffffffffffffffffffffffffff82169050919050565b6000620004d182620004a4565b9050919050565b620004e381620004c4565b8114620004ef57600080fd5b50565b6000815190506200050381620004d8565b92915050565b6000806000606084860312156200052557620005246200031b565b5b600084015167ffffffffffffffff81111562000546576200054562000320565b5b620005548682870162000471565b935050602084015167ffffffffffffffff81111562000578576200057762000320565b5b620005868682870162000471565b92505060406200059986828701620004f2565b9150509250925092565b600081519050919050565b7f4e487b7100000000000000000000000000000000000000000000000000000000600052602260045260246000fd5b60006002820490506001821680620005f657607f821691505b6020821081036200060c576200060b620005ae565b5b50919050565b60008190508160005260206000209050919050565b60006020601f8301049050919050565b600082821b905092915050565b600060088302620006767fffffffffffffffffffffffffffffffffffffffffffffffffffffffffffffffff8262000637565b62000682868362000637565b95508019841693508086168417925050509392505050565b6000819050919050565b6000819050919050565b6000620006cf620006c9620006c3846200069a565b620006a4565b6200069a565b9050919050565b6000819050919050565b620006eb83620006ae565b62000703620006fa82620006d6565b84845462000644565b825550505050565b600090565b6200071a6200070b565b62000727818484620006e0565b505050565b5b818110156200074f576200074360008262000710565b6001810190506200072d565b5050565b601f8211156200079e57620007688162000612565b620007738462000627565b8101602085101562000783578190505b6200079b620007928562000627565b8301826200072c565b50505b505050565b600082821c905092915050565b6000620007c360001984600802620007a3565b1980831691505092915050565b6000620007de8383620007b0565b9150826002028217905092915050565b620007f982620005a3565b67ffffffffffffffff81111562000815576200081462000340565b5b620008218254620005dd565b6200082e82828562000753565b600060209050601f83116001811462000866576000841562000851578287015190505b6200085d8582620007d0565b865550620008cd565b601f198416620008768662000612565b60005b82811015620008a05784890151825560018201915060208501945060208101905062000879565b86831015620008c05784890151620008bc601f891682620007b0565b8355505b6001600288020188555050505b505050505050565b7f4e487b7100000000000000000000000000000000000000000000000000000000600052601160045260246000fd5b600062000911826200069a565b91506200091e836200069a565b92508282026200092e816200069a565b91508282048414831517620009485762000947620008d5565b5b5092915050565b612ad6806200095f6000396000f3fe608060405234801561001057600080fd5b50600436106101da5760003560e01c806370a0823111610104578063b09f1266116100a2578063dd62ed3e11610071578063dd62ed3e1461054d578063f2fde38b1461057d578063f77c479114610599578063fad8b32a146105b7576101da565b8063b09f1266146104d7578063b6363cf2146104f5578063c0ac360f14610525578063d28d88521461052f576101da565b8063959b8c3f116100de578063959b8c3f1461046357806395d89b411461047f578063a31d9c0a1461049d578063a9059cbb146104a7576101da565b806370a08231146103f95780638da5cb5b1461042957806392eefe9b14610447576101da565b806323b872dd1161017c5780633fa99c021161014b5780633fa99c021461035d57806349ac28921461037b5780634c783bf5146103ab57806365731fe9146103c9576101da565b806323b872dd146102d3578063313ce5671461030357806332424aa3146103215780633eaaf86b1461033f576101da565b806317d355dd116101b857806317d355dd1461025d57806318160ddd1461027b5780631f5e8f4c1461029957806320d2a4d6146102b7576101da565b8063024c2ddd146101df57806306fdde031461020f578063095ea7b31461022d575b600080fd5b6101f960048036038101906101f49190611efd565b6105d3565b6040516102069190611f56565b60405180910390f35b6102176105f8565b6040516102249190612001565b60405180910390f35b6102476004803603810190610242919061204f565b61068a565b60405161025491906120aa565b60405180910390f35b6102656107a5565b6040516102729190612183565b60405180910390f35b610283610833565b6040516102909190611f56565b60405180910390f35b6102a161083d565b6040516102ae91906120aa565b60405180910390f35b6102d160048036038101906102cc91906121a5565b610854565b005b6102ed60048036038101906102e891906121d2565b610a24565b6040516102fa91906120aa565b60405180910390f35b61030b610b94565b6040516103189190612241565b60405180910390f35b610329610bab565b6040516103369190612241565b60405180910390f35b610347610bbe565b6040516103549190611f56565b60405180910390f35b610365610bc4565b6040516103729190611f56565b60405180910390f35b6103956004803603810190610390919061225c565b610be0565b6040516103a29190611f56565b60405180910390f35b6103b3610c3b565b6040516103c091906120aa565b60405180910390f35b6103e360048036038101906103de919061225c565b610c52565b6040516103f091906120aa565b60405180910390f35b610413600480360381019061040e919061225c565b610ca8565b6040516104209190611f56565b60405180910390f35b610431610cf1565b60405161043e9190612298565b60405180910390f35b610461600480360381019061045c919061225c565b610d1a565b005b61047d6004803603810190610478919061225c565b610db4565b005b610487610ede565b6040516104949190612001565b60405180910390f35b6104a5610f70565b005b6104c160048036038101906104bc919061204f565b61100a565b6040516104ce91906120aa565b60405180910390f35b6104df611086565b6040516104ec9190612001565b60405180910390f35b61050f600480360381019061050a9190611efd565b611114565b60405161051c91906120aa565b60405180910390f35b61052d611128565b005b6105376111c2565b6040516105449190612001565b60405180910390f35b61056760048036038101906105629190611efd565b611250565b6040516105749190611f56565b60405180910390f35b6105976004803603810190610592919061225c565b6112d7565b005b6105a16114b3565b6040516105ae9190612298565b60405180910390f35b6105d160048036038101906105cc919061225c565b6114dd565b005b6002602052816000526040600020602052806000526040600020600091509150505481565b606060078054610607906122e2565b80601f0160208091040260200160405190810160405280929190818152602001828054610633906122e2565b80156106805780601f1061065557610100808354040283529160200191610680565b820191906000526020600020905b81548152906001019060200180831161066357829003601f168201915b5050505050905090565b600080600260003373ffffffffffffffffffffffffffffffffffffffff1673ffffffffffffffffffffffffffffffffffffffff16815260200190815260200160002060008573ffffffffffffffffffffffffffffffffffffffff1673ffffffffffffffffffffffffffffffffffffffff16815260200190815260200160002054905082600160003373ffffffffffffffffffffffffffffffffffffffff1673ffffffffffffffffffffffffffffffffffffffff16815260200190815260200160002054101561078e576040517f08c379a0000000000000000000000000000000000000000000000000000000008152600401610785906123ab565b60405180910390fd5b61079a33858386611607565b600191505092915050565b6060600c80548060200260200160405190810160405280929190818152602001828054801561082957602002820191906000526020600020905b8160009054906101000a900473ffffffffffffffffffffffffffffffffffffffff1673ffffffffffffffffffffffffffffffffffffffff16815260200190600101908083116107df575b5050505050905090565b6000600654905090565b6000600b60159054906101000a900460ff16905090565b60008054906101000a900473ffffffffffffffffffffffffffffffffffffffff1673ffffffffffffffffffffffffffffffffffffffff163373ffffffffffffffffffffffffffffffffffffffff16146108e2576040517f08c379a00000000000000000000000000000000000000000000000000000000081526004016108d990612417565b60405180910390fd5b60005b600c805490508110156109e957600060065460016000600c858154811061090f5761090e612437565b5b9060005260206000200160009054906101000a900473ffffffffffffffffffffffffffffffffffffffff1673ffffffffffffffffffffffffffffffffffffffff1673ffffffffffffffffffffffffffffffffffffffff16815260200190815260200160002054846109809190612495565b61098a9190612506565b90506109d533600c84815481106109a4576109a3612437565b5b9060005260206000200160009054906101000a900473ffffffffffffffffffffffffffffffffffffffff16836117d3565b5080806109e190612537565b9150506108e5565b507f23b3a9e74bec74a80a1b99fd645e2c39c1de9cbf9dd755dbb426f1449efeda9181604051610a199190611f56565b60405180910390a150565b6000610a318484846117d3565b8273ffffffffffffffffffffffffffffffffffffffff168473ffffffffffffffffffffffffffffffffffffffff163373ffffffffffffffffffffffffffffffffffffffff167fd1398bee19313d6bf672ccb116e51f4a1a947e91c757907f51fbb5b5e56c698f85604051610aa59190611f56565b60405180910390a46000600260008673ffffffffffffffffffffffffffffffffffffffff1673ffffffffffffffffffffffffffffffffffffffff16815260200190815260200160002060003373ffffffffffffffffffffffffffffffffffffffff1673ffffffffffffffffffffffffffffffffffffffff16815260200190815260200160002054905082811015610b71576040517f08c379a0000000000000000000000000000000000000000000000000000000008152600401610b68906125f1565b60405180910390fd5b610b888533838685610b839190612611565b611607565b60019150509392505050565b6000600960009054906101000a900460ff16905090565b600960009054906101000a900460ff1681565b60065481565b600080600a54600654610bd79190612506565b90508091505090565b600080600a54600160008573ffffffffffffffffffffffffffffffffffffffff1673ffffffffffffffffffffffffffffffffffffffff16815260200190815260200160002054610c309190612506565b905080915050919050565b6000600b60009054906101000a900460ff16905090565b6000600560008373ffffffffffffffffffffffffffffffffffffffff1673ffffffffffffffffffffffffffffffffffffffff16815260200190815260200160002060009054906101000a900460ff169050919050565b6000600160008373ffffffffffffffffffffffffffffffffffffffff1673ffffffffffffffffffffffffffffffffffffffff168152602001908152602001600020549050919050565b60008060009054906101000a900473ffffffffffffffffffffffffffffffffffffffff16905090565b60008054906101000a900473ffffffffffffffffffffffffffffffffffffffff1673ffffffffffffffffffffffffffffffffffffffff163373ffffffffffffffffffffffffffffffffffffffff1614610da8576040517f08c379a0000000000000000000000000000000000000000000000000000000008152600401610d9f90612417565b60405180910390fd5b610db181611a42565b50565b3373ffffffffffffffffffffffffffffffffffffffff168173ffffffffffffffffffffffffffffffffffffffff1603610dec57600080fd5b6001600360008373ffffffffffffffffffffffffffffffffffffffff1673ffffffffffffffffffffffffffffffffffffffff16815260200190815260200160002060003373ffffffffffffffffffffffffffffffffffffffff1673ffffffffffffffffffffffffffffffffffffffff16815260200190815260200160002060006101000a81548160ff0219169083151502179055503373ffffffffffffffffffffffffffffffffffffffff168173ffffffffffffffffffffffffffffffffffffffff167ff4caeb2d6ca8932a215a353d0703c326ec2d81fc68170f320eb2ab49e9df61f960405160405180910390a350565b606060088054610eed906122e2565b80601f0160208091040260200160405190810160405280929190818152602001828054610f19906122e2565b8015610f665780601f10610f3b57610100808354040283529160200191610f66565b820191906000526020600020905b815481529060010190602001808311610f4957829003601f168201915b5050505050905090565b600b60019054906101000a900473ffffffffffffffffffffffffffffffffffffffff1673ffffffffffffffffffffffffffffffffffffffff163373ffffffffffffffffffffffffffffffffffffffff1614611000576040517f08c379a0000000000000000000000000000000000000000000000000000000008152600401610ff7906126b7565b60405180910390fd5b611008611b58565b565b60006110173384846117d3565b8273ffffffffffffffffffffffffffffffffffffffff163373ffffffffffffffffffffffffffffffffffffffff167fddf252ad1be2c89b69c2b068fc378daa952ba7f163c4a11628f55a4df523b3ef846040516110749190611f56565b60405180910390a36001905092915050565b60088054611093906122e2565b80601f01602080910402602001604051908101604052809291908181526020018280546110bf906122e2565b801561110c5780601f106110e15761010080835404028352916020019161110c565b820191906000526020600020905b8154815290600101906020018083116110ef57829003601f168201915b505050505081565b60006111208383611bd6565b905092915050565b600b60019054906101000a900473ffffffffffffffffffffffffffffffffffffffff1673ffffffffffffffffffffffffffffffffffffffff163373ffffffffffffffffffffffffffffffffffffffff16146111b8576040517f08c379a00000000000000000000000000000000000000000000000000000000081526004016111af906126b7565b60405180910390fd5b6111c0611d0c565b565b600780546111cf906122e2565b80601f01602080910402602001604051908101604052809291908181526020018280546111fb906122e2565b80156112485780601f1061121d57610100808354040283529160200191611248565b820191906000526020600020905b81548152906001019060200180831161122b57829003601f168201915b505050505081565b6000600260008473ffffffffffffffffffffffffffffffffffffffff1673ffffffffffffffffffffffffffffffffffffffff16815260200190815260200160002060008373ffffffffffffffffffffffffffffffffffffffff1673ffffffffffffffffffffffffffffffffffffffff16815260200190815260200160002054905092915050565b60008054906101000a900473ffffffffffffffffffffffffffffffffffffffff1673ffffffffffffffffffffffffffffffffffffffff163373ffffffffffffffffffffffffffffffffffffffff1614611365576040517f08c379a000000000000000000000000000000000000000000000000000000000815260040161135c90612417565b60405180910390fd5b60008054906101000a900473ffffffffffffffffffffffffffffffffffffffff1673ffffffffffffffffffffffffffffffffffffffff168173ffffffffffffffffffffffffffffffffffffffff16036113bd57600080fd5b600073ffffffffffffffffffffffffffffffffffffffff168173ffffffffffffffffffffffffffffffffffffffff16036113f657600080fd5b806000806101000a81548173ffffffffffffffffffffffffffffffffffffffff021916908373ffffffffffffffffffffffffffffffffffffffff1602179055508073ffffffffffffffffffffffffffffffffffffffff1660008054906101000a900473ffffffffffffffffffffffffffffffffffffffff1673ffffffffffffffffffffffffffffffffffffffff167f8be0079c531659141344cd1fd0a4f28419497f9722a3daafe3b4186f6b6457e060405160405180910390a350565b6000600b60019054906101000a900473ffffffffffffffffffffffffffffffffffffffff16905090565b3373ffffffffffffffffffffffffffffffffffffffff168173ffffffffffffffffffffffffffffffffffffffff160361151557600080fd5b6000600360008373ffffffffffffffffffffffffffffffffffffffff1673ffffffffffffffffffffffffffffffffffffffff16815260200190815260200160002060003373ffffffffffffffffffffffffffffffffffffffff1673ffffffffffffffffffffffffffffffffffffffff16815260200190815260200160002060006101000a81548160ff0219169083151502179055503373ffffffffffffffffffffffffffffffffffffffff168173ffffffffffffffffffffffffffffffffffffffff167f50546e66e5f44d728365dc3908c63bc5cfeeab470722c1677e3073a6ac294aa160405160405180910390a350565b600073ffffffffffffffffffffffffffffffffffffffff168473ffffffffffffffffffffffffffffffffffffffff1603611676576040517f08c379a000000000000000000000000000000000000000000000000000000000815260040161166d90612749565b60405180910390fd5b600073ffffffffffffffffffffffffffffffffffffffff168373ffffffffffffffffffffffffffffffffffffffff16036116e5576040517f08c379a00000000000000000000000000000000000000000000000000000000081526004016116dc906127db565b60405180910390fd5b80600260008673ffffffffffffffffffffffffffffffffffffffff1673ffffffffffffffffffffffffffffffffffffffff16815260200190815260200160002060008573ffffffffffffffffffffffffffffffffffffffff1673ffffffffffffffffffffffffffffffffffffffff168152602001908152602001600020819055508273ffffffffffffffffffffffffffffffffffffffff168473ffffffffffffffffffffffffffffffffffffffff167fb3fd5071835887567a0671151121894ddccc2842f1d10bedad13e0d17cace9a784846040516117c59291906127fb565b60405180910390a350505050565b60001515600b60159054906101000a900460ff16151514611829576040517f08c379a000000000000000000000000000000000000000000000000000000000815260040161182090612896565b60405180910390fd5b600073ffffffffffffffffffffffffffffffffffffffff168373ffffffffffffffffffffffffffffffffffffffff1603611898576040517f08c379a000000000000000000000000000000000000000000000000000000000815260040161188f90612928565b60405180910390fd5b600073ffffffffffffffffffffffffffffffffffffffff168273ffffffffffffffffffffffffffffffffffffffff1603611907576040517f08c379a00000000000000000000000000000000000000000000000000000000081526004016118fe906129ba565b60405180910390fd5b6000600160008573ffffffffffffffffffffffffffffffffffffffff1673ffffffffffffffffffffffffffffffffffffffff1681526020019081526020016000205490508181101561198e576040517f08c379a000000000000000000000000000000000000000000000000000000000815260040161198590612a4c565b60405180910390fd5b818161199a9190612611565b600160008673ffffffffffffffffffffffffffffffffffffffff1673ffffffffffffffffffffffffffffffffffffffff1681526020019081526020016000208190555081600160008573ffffffffffffffffffffffffffffffffffffffff1673ffffffffffffffffffffffffffffffffffffffff1681526020019081526020016000206000828254611a2c9190612a6c565b92505081905550611a3c83611d8a565b50505050565b600060046000600b60019054906101000a900473ffffffffffffffffffffffffffffffffffffffff1673ffffffffffffffffffffffffffffffffffffffff1673ffffffffffffffffffffffffffffffffffffffff16815260200190815260200160002060006101000a81548160ff0219169083151502179055506001600460008373ffffffffffffffffffffffffffffffffffffffff1673ffffffffffffffffffffffffffffffffffffffff16815260200190815260200160002060006101000a81548160ff02191690831515021790555080600b60016101000a81548173ffffffffffffffffffffffffffffffffffffffff021916908373ffffffffffffffffffffffffffffffffffffffff16021790555050565b611b84600b60019054906101000a900473ffffffffffffffffffffffffffffffffffffffff1633611bd6565b611b8d57600080fd5b6001600b60156101000a81548160ff0219169083151502179055507fdd38609d23c0502d4f56b69caf286d0cc86705fd2a8027cb11b444bc797b200160405160405180910390a1565b60008173ffffffffffffffffffffffffffffffffffffffff168373ffffffffffffffffffffffffffffffffffffffff161480611c985750600360008473ffffffffffffffffffffffffffffffffffffffff1673ffffffffffffffffffffffffffffffffffffffff16815260200190815260200160002060008373ffffffffffffffffffffffffffffffffffffffff1673ffffffffffffffffffffffffffffffffffffffff16815260200190815260200160002060009054906101000a900460ff165b80611d045750600b60009054906101000a900460ff168015611d035750600460008473ffffffffffffffffffffffffffffffffffffffff1673ffffffffffffffffffffffffffffffffffffffff16815260200190815260200160002060009054906101000a900460ff165b5b905092915050565b611d38600b60019054906101000a900473ffffffffffffffffffffffffffffffffffffffff1633611bd6565b611d4157600080fd5b6000600b60156101000a81548160ff0219169083151502179055507f1fdaf624b94fed9d74b0c625738858c2866a6767f81fc2d01171a340723bcbd460405160405180910390a1565b600560008273ffffffffffffffffffffffffffffffffffffffff1673ffffffffffffffffffffffffffffffffffffffff16815260200190815260200160002060009054906101000a900460ff16611e9757600c819080600181540180825580915050600190039060005260206000200160009091909190916101000a81548173ffffffffffffffffffffffffffffffffffffffff021916908373ffffffffffffffffffffffffffffffffffffffff1602179055506001600560008373ffffffffffffffffffffffffffffffffffffffff1673ffffffffffffffffffffffffffffffffffffffff16815260200190815260200160002060006101000a81548160ff0219169083151502179055505b50565b600080fd5b600073ffffffffffffffffffffffffffffffffffffffff82169050919050565b6000611eca82611e9f565b9050919050565b611eda81611ebf565b8114611ee557600080fd5b50565b600081359050611ef781611ed1565b92915050565b60008060408385031215611f1457611f13611e9a565b5b6000611f2285828601611ee8565b9250506020611f3385828601611ee8565b9150509250929050565b6000819050919050565b611f5081611f3d565b82525050565b6000602082019050611f6b6000830184611f47565b92915050565b600081519050919050565b600082825260208201905092915050565b60005b83811015611fab578082015181840152602081019050611f90565b60008484015250505050565b6000601f19601f8301169050919050565b6000611fd382611f71565b611fdd8185611f7c565b9350611fed818560208601611f8d565b611ff681611fb7565b840191505092915050565b6000602082019050818103600083015261201b8184611fc8565b905092915050565b61202c81611f3d565b811461203757600080fd5b50565b60008135905061204981612023565b92915050565b6000806040838503121561206657612065611e9a565b5b600061207485828601611ee8565b92505060206120858582860161203a565b9150509250929050565b60008115159050919050565b6120a48161208f565b82525050565b60006020820190506120bf600083018461209b565b92915050565b600081519050919050565b600082825260208201905092915050565b6000819050602082019050919050565b6120fa81611ebf565b82525050565b600061210c83836120f1565b60208301905092915050565b6000602082019050919050565b6000612130826120c5565b61213a81856120d0565b9350612145836120e1565b8060005b8381101561217657815161215d8882612100565b975061216883612118565b925050600181019050612149565b5085935050505092915050565b6000602082019050818103600083015261219d8184612125565b905092915050565b6000602082840312156121bb576121ba611e9a565b5b60006121c98482850161203a565b91505092915050565b6000806000606084860312156121eb576121ea611e9a565b5b60006121f986828701611ee8565b935050602061220a86828701611ee8565b925050604061221b8682870161203a565b9150509250925092565b600060ff82169050919050565b61223b81612225565b82525050565b60006020820190506122566000830184612232565b92915050565b60006020828403121561227257612271611e9a565b5b600061228084828501611ee8565b91505092915050565b61229281611ebf565b82525050565b60006020820190506122ad6000830184612289565b92915050565b7f4e487b7100000000000000000000000000000000000000000000000000000000600052602260045260246000fd5b600060028204905060018216806122fa57607f821691505b60208210810361230d5761230c6122b3565b5b50919050565b7f45524332303a2054686520616d6f756e7420746f206265207472616e7366657260008201527f72656420657863656564732074686520616d6f756e74206f6620746f6b656e7360208201527f2068656c6420627920746865206f776e65722e00000000000000000000000000604082015250565b6000612395605383611f7c565b91506123a082612313565b606082019050919050565b600060208201905081810360008301526123c481612388565b9050919050565b7f4f776e657248656c7065723a2063616c6c6572206973206e6f74206f776e6572600082015250565b6000612401602083611f7c565b915061240c826123cb565b602082019050919050565b60006020820190508181036000830152612430816123f4565b9050919050565b7f4e487b7100000000000000000000000000000000000000000000000000000000600052603260045260246000fd5b7f4e487b7100000000000000000000000000000000000000000000000000000000600052601160045260246000fd5b60006124a082611f3d565b91506124ab83611f3d565b92508282026124b981611f3d565b915082820484148315176124d0576124cf612466565b5b5092915050565b7f4e487b7100000000000000000000000000000000000000000000000000000000600052601260045260246000fd5b600061251182611f3d565b915061251c83611f3d565b92508261252c5761252b6124d7565b5b828204905092915050565b600061254282611f3d565b91507fffffffffffffffffffffffffffffffffffffffffffffffffffffffffffffffff820361257457612573612466565b5b600182019050919050565b7f45524332303a207472616e7366657220616d6f756e742065786365656473206160008201527f6c6c6f77616e6365000000000000000000000000000000000000000000000000602082015250565b60006125db602883611f7c565b91506125e68261257f565b604082019050919050565b6000602082019050818103600083015261260a816125ce565b9050919050565b600061261c82611f3d565b915061262783611f3d565b925082820390508181111561263f5761263e612466565b5b92915050565b7f6f6e6c794f70657261746f723a2063616c6c6572206973206e6f74207468652060008201527f6f70657261746f72000000000000000000000000000000000000000000000000602082015250565b60006126a1602883611f7c565b91506126ac82612645565b604082019050919050565b600060208201905081810360008301526126d081612694565b9050919050565b7f45524332303a20617070726f76652066726f6d20746865207a65726f2061646460008201527f7265737300000000000000000000000000000000000000000000000000000000602082015250565b6000612733602483611f7c565b915061273e826126d7565b604082019050919050565b6000602082019050818103600083015261276281612726565b9050919050565b7f45524332303a20617070726f766520746f20746865207a65726f20616464726560008201527f7373000000000000000000000000000000000000000000000000000000000000602082015250565b60006127c5602283611f7c565b91506127d082612769565b604082019050919050565b600060208201905081810360008301526127f4816127b8565b9050919050565b60006040820190506128106000830185611f47565b61281d6020830184611f47565b9392505050565b7f5265737472696374696f6e3a2074686520746f6b656e2069732072657374726960008201527f6374656420627920746865206f70657261746f72000000000000000000000000602082015250565b6000612880603483611f7c565b915061288b82612824565b604082019050919050565b600060208201905081810360008301526128af81612873565b9050919050565b7f45524332303a207472616e736665722066726f6d20746865207a65726f20616460008201527f6472657373000000000000000000000000000000000000000000000000000000602082015250565b6000612912602583611f7c565b915061291d826128b6565b604082019050919050565b6000602082019050818103600083015261294181612905565b9050919050565b7f45524332303a207472616e7366657220746f20746865207a65726f206164647260008201527f6573730000000000000000000000000000000000000000000000000000000000602082015250565b60006129a4602383611f7c565b91506129af82612948565b604082019050919050565b600060208201905081810360008301526129d381612997565b9050919050565b7f45524332303a207472616e7366657220616d6f756e742065786365656473206260008201527f616c616e63650000000000000000000000000000000000000000000000000000602082015250565b6000612a36602683611f7c565b9150612a41826129da565b604082019050919050565b60006020820190508181036000830152612a6581612a29565b9050919050565b6000612a7782611f3d565b9150612a8283611f3d565b9250828201905080821115612a9a57612a99612466565b5b9291505056fea2646970667358221220004507697db142018c1fc18a7b562ebb030f134a24167217478da19ad975638b64736f6c63430008110033",
  "immutableReferences": {},
  "source": "// SPDX-License-Identifier: GPL-3.0\npragma solidity >=0.7.0 <0.9.0;\n\ninterface ERC1400Interface {\n    function totalSupply() external view returns (uint256);\n    function simpleTotalSupply() external view returns (uint256);\n    function balanceOf(address account) external view returns (uint256);\n    function simpleBalanceOf(address account) external view returns (uint256);\n    function transfer(address recipient, uint256 amount) external returns (bool);\n    function approve(address spender, uint256 amount) external returns (bool);\n    function allowance(address owner, address spender) external view returns (uint256);\n    function transferFrom(address spender, address recipient, uint256 amount) external returns (bool);\n    function isControllable() external view returns (bool);\n    function authorizeOperator(address operator) external;\n    function revokeOperator(address operator) external;\n    function isOperator(address operator, address tokenHolder) external view returns (bool);\n    function restrictToken() external;\n    function allowToken() external;\n    function isRestricted() external view returns(bool);\n    function isTokenHolder(address tokenholder) external view returns (bool);\n    function dividendPayment(uint256 totalDividend) external ;\n    function showAllTokenHolders() external view returns (address[] memory);\n\n    event Transfer(address indexed from, address indexed to, uint256 amount);\n    event Transfer(address indexed spender, address indexed from, address indexed to, uint256 amount);\n    event Approval(address indexed owner, address indexed spender, uint256 oldAmount, uint256 amount);\n    event AuthorizedOperator(address indexed operator, address indexed tokenHolder);\n    event RevokedOperator(address indexed operator, address indexed tokenHolder);\n    event RestrictToken();\n    event AllowToken();\n    event DividendPayment(uint256 totalDividend);\n}\n\nabstract contract OwnerHelper {\n  \taddress private _owner;\n\n  \tevent OwnershipTransferred(address indexed preOwner, address indexed nextOwner);\n\n  \tmodifier onlyOwner {\n\t\trequire(msg.sender == _owner, \"OwnerHelper: caller is not owner\");\n\t\t_;\n  \t}\n\n  \tconstructor() {\n\t\t_owner = msg.sender;\n  \t}\n\n  \tfunction owner() public view virtual returns (address) {\n\t\treturn _owner;\n  \t}\n\n  \tfunction transferOwnership(address newOwner) onlyOwner public {\n\t\trequire(newOwner != _owner);\n\t\trequire(newOwner != address(0x0));\n\t\t_owner = newOwner;\n\t\temit OwnershipTransferred(_owner, newOwner);\n  \t}\n}\n\ncontract ERC1400 is ERC1400Interface, OwnerHelper {\n    mapping (address => uint256) private _balances;\n    mapping (address => mapping (address => uint256)) public _allowances;\n    mapping(address => mapping(address => bool)) internal _authorizedOperator; //\n    mapping(address => bool) internal _isController; //\n    mapping(address => bool) internal _isTokenHolder; //        \n\n    uint256 public _totalSupply;\n    string public _name;\n    string public _symbol;\n    uint8 public _decimals;\n    uint private E18 = 1000000000000000000;\n    bool internal _isControllable; // operator      \n    address internal _controller; //     operator()\n    bool internal _isRestricted; //    \n    address[] internal _tokenHolderList; //     \n    \n\n    /*\n    * operator()     modifier\n    */\n    modifier onlyOperator {\n        require(msg.sender == _controller, \"onlyOperator: caller is not the operator\");\n        _;\n    }\n\n    /*\n    *     modifier\n    */\n    modifier notRestricted {\n        require(_isRestricted == false, \"Restriction: the token is restricted by the operator\");\n        _;\n    }\n\n    constructor(string memory getName, string memory getSymbol, address initialController) {\n        _name = getName;\n        _symbol = getSymbol;\n        _decimals = 18; //    \n        _totalSupply = 100000000 * E18; //     \n        _balances[msg.sender] = _totalSupply; // constructor    ??\n\n        _setController(initialController); //   controller  \n        _authorizedOperator[initialController][msg.sender]; //    operator  \n        _isControllable = true; // operator/controller       \n        _isRestricted = false; //     \n\n    }\n\n    function name() public view returns (string memory) {\n        return _name;\n    }\n\n    function symbol() public view returns (string memory) {\n        return _symbol;\n    }\n\n    function decimals() public view returns (uint8) {\n        return _decimals;\n    }\n\n    function totalSupply() external view virtual override returns (uint256) {\n        return _totalSupply;\n    }\n\n    function simpleTotalSupply() external view virtual override returns (uint256) {\n        uint256 simple = _totalSupply / E18;\n        return simple;\n    }\n\n    function balanceOf(address account) external view virtual override returns (uint256) {\n        return _balances[account];\n    }\n\n    function simpleBalanceOf(address account) external view virtual override returns (uint256) {\n        uint256 simple = _balances[account] / E18;\n        return simple;\n    }\n\n    function transfer(address recipient, uint amount) public virtual override returns (bool) {\n        _transfer(msg.sender, recipient, amount);\n        emit Transfer(msg.sender, recipient, amount);\n        return true;\n    }\n\n    function allowance(address owner, address spender) external view override returns (uint256) {\n        return _allowances[owner][spender];\n    }\n\n    function approve(address spender, uint amount) external virtual override returns (bool) {\n        uint256 currentAllowance = _allowances[msg.sender][spender];\n        require(_balances[msg.sender] >= amount,\"ERC20: The amount to be transferred exceeds the amount of tokens held by the owner.\");\n        _approve(msg.sender, spender, currentAllowance, amount);\n        return true;\n    }\n\n    function transferFrom(address sender, address recipient, uint256 amount) external virtual override returns (bool) {\n        _transfer(sender, recipient, amount);\n        emit Transfer(msg.sender, sender, recipient, amount);\n        uint256 currentAllowance = _allowances[sender][msg.sender];\n        require(currentAllowance >= amount, \"ERC20: transfer amount exceeds allowance\");\n        _approve(sender, msg.sender, currentAllowance, currentAllowance - amount);\n        return true;\n    }\n\n    function _transfer(address sender, address recipient, uint256 amount) internal virtual notRestricted {\n        require(sender != address(0), \"ERC20: transfer from the zero address\");\n        require(recipient != address(0), \"ERC20: transfer to the zero address\");\n        uint256 senderBalance = _balances[sender];\n        require(senderBalance >= amount, \"ERC20: transfer amount exceeds balance\");\n        _balances[sender] = senderBalance - amount;\n        _balances[recipient] += amount;\n        _addToTokenholderList(recipient); //       .\n    }\n\n    function _approve(address owner, address spender, uint256 currentAmount, uint256 amount) internal virtual {\n        require(owner != address(0), \"ERC20: approve from the zero address\");\n        require(spender != address(0), \"ERC20: approve to the zero address\");\n        _allowances[owner][spender] = amount;\n        emit Approval(owner, spender, currentAmount, amount);\n    }\n\n    /**\n    * @dev Know if the token can be controlled by operators.\n    * If a token returns 'false' for 'isControllable()'' then it MUST always return 'false' in the future.\n    * @return bool 'true' if the token can still be controlled by operators, 'false' if it can't anymore.\n    */\n    function isControllable() external override view returns (bool) {\n        return _isControllable;\n    }\n\n    /**\n    * @dev Set a third party operator address as an operator of 'msg.sender' to transfer\n    * and redeem tokens on its behalf.\n    * @param operator Address to set as an operator for 'msg.sender'.\n    */\n    function authorizeOperator(address operator) external override {\n        require(operator != msg.sender);\n        _authorizedOperator[operator][msg.sender] = true;\n        emit AuthorizedOperator(operator, msg.sender);\n    }\n\n    /**\n    * @dev Remove the right of the operator address to be an operator for 'msg.sender'\n    * and to transfer and redeem tokens on its behalf.\n    * @param operator Address to rescind as an operator for 'msg.sender'.\n    */\n    function revokeOperator(address operator) external override {\n        require(operator != msg.sender);\n        _authorizedOperator[operator][msg.sender] = false;\n        emit RevokedOperator(operator, msg.sender);\n    }\n\n    /**\n    * @dev Indicate whether the operator address is an operator of the tokenHolder address.\n    * @param operator Address which may be an operator of tokenHolder.\n    * @param tokenHolder Address of a token holder which may have the operator address as an operator.\n    * @return 'true' if operator is an operator of 'tokenHolder' and 'false' otherwise.\n    */\n    function isOperator(address operator, address tokenHolder) external override view returns (bool) {\n        return _isOperator(operator, tokenHolder);\n    }\n\n    /**\n    * @dev Get the list of controllers as defined by the token contract.\n    * @return List of addresses of all the controllers.\n    */\n    function controller() external view returns (address) {\n        return _controller;\n    }\n\n    /*\n    * @dev Set list of token controllers.\n    * @param operators Controller addresses.\n    */\n    function setController(address operator) external onlyOwner {\n        _setController(operator);\n    }\n\n    /*\n    * @dev Indicate whether the operator address is an operator of the tokenHolder address.\n    * @param operator Address which may be an operator of 'tokenHolder'.\n    * @param tokenHolder Address of a token holder which may have the 'operator' address as an operator.\n    * @return 'true' if 'operator' is an operator of 'tokenHolder' and 'false' otherwise.\n    */\n    function _isOperator(address operator, address tokenHolder) internal view returns (bool) {\n        return (operator == tokenHolder\n          || _authorizedOperator[operator][tokenHolder]\n          || (_isControllable && _isController[operator])\n        );\n    }\n\n    /*\n    * @dev Set list of token controllers.\n    * @param operators Controller addresses.\n    */\n    function _setController(address operator) internal {\n        _isController[_controller] = false;\n        _isController[operator] = true;\n        _controller = operator;\n    }\n\n    /*\n    *     \n    */\n\n    //     : operator       .\n    function restrictToken() external override onlyOperator {\n        _restrictToken();\n    }\n\n    //     : operator       .\n    function allowToken() external override onlyOperator {\n        _allowToken();\n    }\n\n    function _restrictToken() internal {\n        require(_isOperator(_controller, msg.sender));\n        _isRestricted = true;\n        emit RestrictToken();\n    }\n\n    function _allowToken() internal {\n        require(_isOperator(_controller, msg.sender));\n        _isRestricted = false;\n        emit AllowToken();\n    }\n\n    //    \n    function isRestricted() external view override returns(bool) {\n        return _isRestricted;\n    }\n\n    /*\n    *    \n    */\n\n    //    \n    function _addToTokenholderList(address recipient) internal {\n        if(!_isTokenHolder[recipient]){\n            _tokenHolderList.push(recipient);\n            _isTokenHolder[recipient] = true;\n        }\n    }\n\n    //   \n    function isTokenHolder(address tokenholder) external view override returns (bool) {\n        return _isTokenHolder[tokenholder];\n    }\n\n    //     \n    function showAllTokenHolders() external view override returns (address[] memory) {\n        return _tokenHolderList;\n    }\n\n    //    :          \n    function dividendPayment(uint256 totalDividend) external override onlyOwner {\n        for(uint256 i=0; i < _tokenHolderList.length; i++){\n            uint256 dividend = totalDividend * _balances[_tokenHolderList[i]] / _totalSupply;\n            _transfer(msg.sender, _tokenHolderList[i], dividend);\n        }\n        emit DividendPayment(totalDividend);\n    }\n}",
  "sourcePath": "/Users/hyuntae/Desktop/BEB-07-final-entasis/contract/contracts/ERC1400.sol",
  "compiler": {
    "name": "solc",
    "version": "0.8.17+commit.8df45f5f.Emscripten.clang"
  },
  "schemaVersion": "3.4.11",
  "updatedAt": "2023-02-08T02:56:49.192Z",
  "networkType": "ethereum",
  "devdoc": {
    "kind": "dev",
    "methods": {
      "authorizeOperator(address)": {
        "details": "Set a third party operator address as an operator of 'msg.sender' to transfer and redeem tokens on its behalf.",
        "params": {
          "operator": "Address to set as an operator for 'msg.sender'."
        }
      },
      "controller()": {
        "details": "Get the list of controllers as defined by the token contract.",
        "returns": {
          "_0": "List of addresses of all the controllers."
        }
      },
      "isControllable()": {
        "details": "Know if the token can be controlled by operators. If a token returns 'false' for 'isControllable()'' then it MUST always return 'false' in the future.",
        "returns": {
          "_0": "bool 'true' if the token can still be controlled by operators, 'false' if it can't anymore."
        }
      },
      "isOperator(address,address)": {
        "details": "Indicate whether the operator address is an operator of the tokenHolder address.",
        "params": {
          "operator": "Address which may be an operator of tokenHolder.",
          "tokenHolder": "Address of a token holder which may have the operator address as an operator."
        },
        "returns": {
          "_0": "'true' if operator is an operator of 'tokenHolder' and 'false' otherwise."
        }
      },
      "revokeOperator(address)": {
        "details": "Remove the right of the operator address to be an operator for 'msg.sender' and to transfer and redeem tokens on its behalf.",
        "params": {
          "operator": "Address to rescind as an operator for 'msg.sender'."
        }
      }
    },
    "version": 1
  },
  "userdoc": {
    "kind": "user",
    "methods": {},
    "version": 1
  }
}